:100000000000042071030000590300005B0300009E
:100010005D0300005F0300006103000000000000BA
:10002000000000000000000000000000630300006A
:100030006503000000000000670300006903000082
:100040006B0300006B030000111A0000392A000046
:100050006B0300006B0300006B0300006B030000E8
:100060006B0300006B0300006B0300006B030000D8
:100070006B0300006B0300006B0300006B030000C8
:100080006B0300006B0300006B0300006B030000B8
:100090006B0300006B0300006B0300006B030000A8
:1000A0006B0300006B0300006B0300006B03000098
:1000B0006B0300006B030000000000000000000064
:1000C0006B0300006B0300006B0300006B03000078
:1000D0006B0300006B0300006B0300006B03000068
:1000E0006B0300006B0300006B03000000000000C6
:1000F000000000006B030000000000006B03000024
:1001000000000000000000000000000000000000EF
:1001100000000000000000000000000000000000DF
:1001200000000000000000000000000000000000CF
:1001300000000000000000000000000000000000BF
:1001400000000000000000000000000000000000AF
:10015000000000000000000000000000000000009F
:10016000000000000000000000000000000000008F
:10017000000000000000000000000000000000007F
:10018000000000000000000000000000000000006F
:10019000000000000000000000000000000000005F
:1001A000000000000000000000000000000000004F
:1001B000000000000000000000000000000000003F
:1001C000000000000000000000000000000000002F
:1001D000000000000000000000000000000000001F
:1001E000000000000000000000000000000000000F
:1001F00000000000000000000000000000000000FF
:10020000344935480A1A02D0072291438D463349B2
:1002100033480A1A06D00722914381F30988022243
:1002200082F314882F483049304A00F041F83048B2
:100230003049314A00F03CF830483149314A00F049
:1002400037F831483149324A00F032F83148324902
:10025000324A00F02DF832483249334A00F028F88B
:1002600032483349334A00F023F8334833490022F7
:1002700000F029F832483349002200F024F83248CF
:100280003249091A02F0C6FF314A90471F482049F7
:10029000884205D00268043003B4904703BCF7E7F6
:1002A00000208646EC46002000212A4A9047FEE7BF
:1002B000884207D0521A05D0037801300B70013103
:1002C000013AF9D17047884202D002700130FAE752
:1002D000704700000000042000E00320000004201C
:1002E000000004205C3E0000000000200800002008
:1002F000CC030000CC030000283200005C3E00006C
:100300000000002000000020643200006432000081
:100310006432000064320000643200006432000085
:1003200064320000643200005A3E0000643E000067
:10033000080000200800002008000020040600201B
:1003400004060020040600200406002004260020E5
:1003500099030000AD2A0000FEE7FEE7FEE7FEE796
:10036000FEE7FEE7FEE7FEE7FEE7FEE700F002B885
:10037000FFF7FCBF0F484FF00701884385460E4842
:1003800080470E48016841F470010160BFF34F8F50
:10039000BFF36F8FFFF734BF09480A490A4A884202
:1003A00007D0521A05D0037801300B700131013AA1
:1003B000F9D1704700000420A12D000088ED00E075
:0C03C0006432000000000020000000205B
:1003CC0082B04FF0FF33019300BF02B0704700B50D
:1003DC0083B001900091019B1B681B6800990198E8
:1003EC00984700BF03B05DF804FB00B583B00190E3
:1003FC00019B1B685B680198984700BF03B05DF8D0
:10040C0004FB00B583B00190019B1B689B680198AD
:10041C00984700BF03B05DF804FB82B00190019BCC
:10042C00DB6801225A7100BF02B0704782B00190A4
:10043C00019BDB685B79184602B0704700B585B04C
:10044C00019000910C4B01221A700C4800F066FFD1
:10045C000390039B002B01D0039B08E0084801F09C
:10046C00D3F8084A084BD31ADB080293002318462A
:10047C0005B05DF804FB00BF700100205032000095
:10048C00643200005032000028320000024A034B54
:10049C00D31ADB081846704750320000283200008F
:1004AC0084B00190009100238DF80F30019B1B78D4
:1004BC0003F00403DBB2002B24D0019B1B78C3F3A5
:1004CC000103DBB2012B02D0022B0CD017E0009BF6
:1004DC001B68019A1288C2F38312D2B213449A1C7D
:1004EC00009B1A600BE0009B1B68019A5288C2F3B8
:1004FC00891292B213449A1C009B1A6000BF01230C
:10050C008DF80F309DF80F30184604B0704700007E
:10051C0000B58BB00023ADF826303E4800F0E6FD68
:10052C003D4800F0E3FD3D4B9B6804933C4B1B683E
:10053C000693049A069B134002339B00374A1344DC
:10054C000433089304AB19460898FFF7A9FF034638
:10055C00002B09D0049A069B134002339B002F4AB0
:10056C00134404330893EDE700BF0023079311E015
:10057C00049B5A1C0492069A1340079A920001A9F4
:10058C000A44264902339B000B445B681360079BAB
:10059C0001330793079B012BEAD99DF80430C3F371
:1005AC000103DBB2012B10D0022B1CD1BDF80A3099
:1005BC00ADF82630BDF80630C3F389139BB2033374
:1005CC009A08049B1344049313E0BDF80A30ADF869
:1005DC002630BDF80430C3F38313DBB21A46049BF8
:1005EC001344049305E00F494FF4C27000F0F1FC82
:1005FC0000BF094800F086FD0590059B002B02D03A
:10060C00049B064A9360BDF8263018460BB05DF883
:10061C0004FB00BF88050020840500207001002029
:10062C00000000207432000000B585B0002107489E
:10063C0000F0E5FC0390039B0293029B83F31003F1
:10064C000193019B184605B05DF804FB8C05002056
:10065C0000B589B00390029101920093039B1B0C8F
:10066C000793FFF7E1FF0690FFF710FF0246079B89
:10067C00934204D3214940F2A91000F0AAFC069B36
:10068C001904009B5A1C0A9B1340079A0A431C49E5
:10069C0002339B000B445A60009A0A9B13400233AE
:1006AC009B00174A134404330593039B03F0070381
:1006BC00D9B2059A137861F3C5031370019B03F04B
:1006CC000F03D9B2059A138861F389131380029B27
:1006DC00C3F31501059A136861F39F231360059A00
:1006EC001378012161F301031370059A13786FF3EA
:1006FC008203137000BF09B05DF804FB7432000074
:10070C007001002000B58BB00390029113468DF858
:10071C000730039B0233089301238DF81F30002010
:10072C0000F010FC3E4B5A68029B1A603D4B1A6855
:10073C003B4B99683A4B5B68CB1A134401330993D2
:10074C0014E00121384800F0A1FCFFF7E1FE059010
:10075C000599354800F09AFC324B1A68304B996871
:10076C002F4B5B68CB1A134401330993089A099BEE
:10077C009A42E6D89DF81F30002B48D000230493F2
:10078C009DF80730002B17D09DF81030012262F332
:10079C0001038DF810309DF8103043F004038DF8F0
:1007AC001030039B03F00F03DAB2BDF8103062F384
:1007BC008913ADF8103016E09DF81030022262F368
:1007CC0001038DF810309DF8103043F004038DF8C0
:1007DC001030039BC3F309039AB2BDF8123062F3D5
:1007EC008F13ADF812300E4B5A680E4B1B6813402A
:1007FC0002339B000A4A134404330693049A069B63
:10080C001A60074B5A68089B1344054A5360002032
:10081C0000F0ACFB9DF81F3018460BB05DF804FBE4
:10082C0070010020000000208C05002000B58BB06A
:10083C0005900491039202931F4B1B68079306AB20
:10084C00012219460298FFF75DFF0346002B24D0C6
:10085C00069B023309930023089311E0089B9B002D
:10086C00039A1A44099B591C099107990B40126869
:10087C00124902339B000B445A60089B01330893C6
:10088C00089A029B9A42E9D3069A079B0093134657
:10089C00029A04990598FFF7DBFE084B1B78002B96
:1008AC0005D000BF00F068F80346002BFAD100BF5A
:1008BC000BB05DF804FB00BF0000002070010020AD
:1008CC0000B583B00190009100230022009901989B
:1008DC00FFF7ACFF00BF03B05DF804FB00B587B0B9
:1008EC00039002910192019B059305AA01230299A1
:1008FC000398FFF79BFF00BF07B05DF804FB00B542
:10090C0087B00390029101920093019B0493009B8A
:10091C00059304AA022302990398FFF787FF00BFEF
:10092C0007B05DF804FB00B58BB003900291019207
:10093C000093019B0593009B06930C9B07930D9BC7
:10094C0008930E9B099305AA052302990398FFF7B8
:10095C006DFF00BF0BB05DF804FB0000054B9A68FF
:10096C00044B5B689A420CBF01230023DBB2184690
:10097C00704700BF7001002000B599B0FFF7EEFF83
:10098C000346002B01D00023B9E19B4B0022C3F896
:10099C001824BFF34F8F00BF974B9B680493974B62
:1009AC001B681093049A109B134002339B00924ACD
:1009BC00134404331193002317930023169300233D
:1009CC000F9304AB19461198FFF76AFD0346002BF1
:1009DC0019D0894BD3F81834002B14D1864B5A6894
:1009EC00049B9A4205D8844B5B68834A936000232E
:1009FC0085E1049A109B134002339B007E4A1344FA
:100A0C0004331193DDE70023159311E0049B5A1C6A
:100A1C000492109A1340159A920001A90A4476493F
:100A2C0002339B000B445B681360159B01331593D9
:100A3C00159B012BEAD99DF8043003F00303DBB2BC
:100A4C00022B40F09C80BDF80630C3F389139BB297
:100A5C000D93BDF80630C3F389139BB2502B28BFFE
:100A6C0050239BB20C930C9BC3F309039AB2BDF8B1
:100A7C00063062F38F13ADF806300C9B08330B93E2
:100A8C009DF80430C3F3C203DBB20F930B995C489F
:100A9C0000F04FFC1790179B002B00F0D380179899
:100AAC0000F0D8FC01A9169B0822179800F08EFDC7
:100ABC00169B08331693049BDA43109B13400133A7
:100ACC009B000A930C9A0A9B9A4242D90A9B002BD0
:100ADC0008D0049A109B134002339B00464A1344DF
:100AEC00043300E0474B08930A9B002B02D00A9B6F
:100AFC00DBB201E00C9BDBB28DF81F300A9B002BA4
:100B0C0001D0404B00E0002306930A9B002B06D03B
:100B1C000C9BDAB20A9BDBB2D31ADBB200E00023E7
:100B2C008DF817309DF81F20169B0899179800F028
:100B3C004DFD9DF81F30169A13441693069B002BFF
:100B4C0016D09DF81720169B0699179800F03EFDBD
:100B5C000EE0049A109B134002339B00264A134468
:100B6C0004330993169B0C9A0999179800F02EFDE3
:100B7C000D9B03339A08049B1344049362E09DF885
:100B8C00043003F00303DBB2012B5BD1BDF804305E
:100B9C00C3F38313DBB2062B28BF0623DAB2BDF8EE
:100BAC00043062F38913ADF80430BDF80430C3F39C
:100BBC008313DBB202330E939DF80430C3F3C203EC
:100BCC00DBB20F930E9B9B0019460D4800F0B1FB56
:100BDC001790179B002B35D0179800F03BFC01A900
:100BEC00169B0822179800F0F1FC169B08331693FD
:100BFC00002315931DE000BF7001002000000020B1
:100C0C00503200007C010020049B5A1C0492109A64
:100C1C00134002339B003C4A1344191D169B0422BB
:100C2C00179800F0D3FC169B04331693159B0133D5
:100C3C001593BDF80430C3F38313DBB21A46159B2E
:100C4C009342E1D3179B002B39D02F4BD3F81034A0
:100C5C0014932D4BD3F81834002B1BD0179800F09D
:100C6C0008FC46E000238DF84F301498FFF7DEFBAC
:100C7C000346002B02D001238DF84F309DF84F30E6
:100C8C00002B03D017991498FFF7A1FB149BDB687A
:100C9C001B681493149B002BE4D1179800F0E9FB0C
:100CAC00002000F04FF9184BD3F81834002B02D168
:100CBC00049B154A9360002000F058F919E0124B80
:100CCC00D3F81034129306E01298FFF79AFB129B9C
:100CDC00DB681B681293129B002BF5D10B4A0C4B53
:100CEC00D31ADB081B0443F002030A491846FFF72A
:100CFC00E7FDFFF733FE034683F00103DBB2184632
:100D0C0019B05DF804FB00BF7001002048320000F0
:100D1C0028320000F832000000B583B00C4BD3F839
:100D2C00103401930A4B01221A7009E00198FFF765
:100D3C0074FB0198FFF759FB019BDB681B6801935F
:100D4C00019B002BF2D100BF00BF03B05DF804FB88
:100D5C007001002086B003900291019201238DF85E
:100D6C0017309DF81730204A039B13601E4A029BD4
:100D7C0053601D4A019B9360039B44F20102934212
:100D8C0012D0039B44F20202934220D1019B164ADB
:100D9C00D360154BDB681B68134A9361124BDB68FD
:100DAC005B68114AD36112E0019B0F4A13610E4B31
:100DBC001B699B680C4A53610B4B1B691B680A4AE5
:100DCC009361094B1B695B68074AD36100BF72B61C
:100DDC0000BF00BF9DF81730DBB2002BFAD162B612
:100DEC0000BF00BF06B070479005002000B583B06F
:100DFC0002900091019244F2010071466A4600F0A3
:100E0C0003F803B000BD00BF30B58BB0079006915E
:100E1C00059272B600BFFFF77FFF00BFFFF7ACFD76
:100E2C000346002BFAD1079B44F20102934216D0E1
:100E3C00079B44F2020293423ED1059B09932C4A34
:100E4C002C4BD31ADB081B0443F00100099B5B6895
:100E5C001A46099B1B682849FFF751FD39E0059B91
:100E6C000893234A234BD31ADB081B0443F00104D9
:100E7C00089B9D68089B9B68184600F0E3FB0346A3
:100E8C001846089B5B681946089B1B68069A0292D9
:100E9C000193009103462A4618492046FFF743FD6B
:100EAC00134A144BD31ADB081B0443F001031449F7
:100EBC001846FFF705FD0CE00D4A0E4BD31ADB0864
:100ECC001B0443F00103069A0E491846FFF706FD72
:100EDC0000BF0D4B1B6803F00103002B00D000BEBC
:100EEC00059A06990798FFF735FF00BF0BB030BD88
:100EFC0048320000283200000C3300002833000078
:100F0C005033000064330000F0ED00E072B600BF17
:100F1C00034B1B680133024A136000BF704700BFCC
:100F2C00B0050020064B1B68013B054A1360044BBF
:100F3C001B68002B01D162B600BF00BF704700BF19
:100F4C00B005002000B583B0019000F025F80346F1
:100F5C00012B03D00449432000F03BF8FFF7D6FFE8
:100F6C0000BF03B05DF804FB7C33000000B583B018
:100F7C0003468DF8073000F00FF80346012B03D021
:100F8C000449512000F025F8FFF7CCFF00BF03B057
:100F9C005DF804FB7C33000084B0EFF30583019310
:100FAC00019BC3F308030393039B002B0DD1EFF3B9
:100FBC0014830093009B0293029B03F00103002B0C
:100FCC000CBF01230023DBB200E00123184604B060
:100FDC00704700B585B003460091ADF80630BDF8FA
:100FEC0006300293009B039302AB1A46002144F295
:100FFC000200FFF709FF00BF05B05DF804FB10B459
:10100C0087B001900091019B009A53E8004F104665
:10101C0043E8000191F0000FF7D10594049003917F
:10102C00059B184607B05DF8044B704710B487B0A9
:10103C0001900091019B009A53E8004F44EA020092
:10104C0043E8000191F0000FF6D105940490039150
:10105C00049B184607B05DF8044B704710B487B07A
:10106C0001900091019B009A53E8004F04EA0200A2
:10107C0043E8000191F0000FF6D105940490039120
:10108C00059B184607B05DF8044B704710B487B049
:10109C0001900091019B009A53E8004F04EB020071
:1010AC0043E8000191F0000FF6D1059404900391F0
:1010BC00049B184607B05DF8044B704710B487B01A
:1010CC0001900091019B009A53E8004FA4EB0200A1
:1010DC0043E8000191F0000FF6D1059404900391C0
:1010EC00049B184607B05DF8044B704700B583B0FD
:1010FC00019001210198FFF799FF0346184603B0B0
:10110C005DF804FB00B583B0019000210198FFF756
:10111C00A5FF0346184603B05DF804FB00B583B089
:10112C0001900B468DF80330019B002B03D108492D
:10113C00E820FFF74EFF019BDA689DF80330019918
:10114C00098A01FB03F31344184603B05DF804FB52
:10115C00FC33000000B583B001900091019B002B83
:10116C0003D10849F520FFF734FF009B019AD268A0
:10117C009B1A019A128AB3FBF2F3DBB2184603B046
:10118C005DF804FBFC33000000B585B00190019BB9
:10119C00002B01D10E234CE0019B1B68002B03D1CB
:1011AC002649FF20FFF715FF019B5B68002B04D13C
:1011BC0022494FF48070FFF70CFF019B9B68002BBA
:1011CC0004D11E4940F20110FFF703FF019BDB68BD
:1011DC00002B04D119494FF48170FFF7FAFE019BE3
:1011EC001B8A002B04D1154940F20310FFF7F1FEC6
:1011FC00019B9A68019B5B68D31A8DF80F30019B99
:10120C001B68019A52681A6007E0019B1A68136800
:10121C00591C11609DF80F201A709DF80F305A1E42
:10122C008DF80F20002BF0D1019B1B6800221A7146
:10123C000023184605B05DF804FB00BFFC3300002A
:10124C0000B585B00190019B002B04D11C494FF4D3
:10125C009270FFF7BEFE002303930020FFF772FE8F
:10126C00019B1B681A68019B5B689A421FD9019B02
:10127C001B681A68013A1A601B681B78194601989A
:10128C00FFF74CFF0390019B9A68019B1B681B683E
:10129C00D31A8DF80B30019B1B681B799DF80B2022
:1012AC009A4204D9019B1B689DF80B201A710020EF
:1012BC00FFF75CFE039B184605B05DF804FB00BF0E
:1012CC00FC33000010B584B001900091019B002B01
:1012DC0004D1114940F24710FFF77BFE009B002B15
:1012EC0004D10D494FF4A470FFF773FE009B0393D8
:1012FC000020FFF727FE019B1B681C68621C1A600C
:10130C0003990198FFF726FF034623700020FFF78F
:10131C002DFE00BF04B010BDFC33000000B583B03F
:10132C0001900198FFF730FF0346184603B05DF8B3
:10133C0004FB00B58BB001900091019B1B8A043B10
:10134C000793009A079B1344DA1C079BB2FBF3F339
:10135C008DF81B300198FFF773FF0590059B002B50
:10136C0001D1002338E0059B00221A71059B012254
:10137C005A71079B9AB2059BDA80059B09939DF8DD
:10138C001B30013B0493099B019A1A6000230893BC
:10139C001DE00198FFF754FF0390039B002B0ED028
:1013AC00059B5B790133DAB2059B5A71099B039A51
:1013BC001A60039B019A1A60039B099304E0059839
:1013CC0000F00EF8002307E0089B01330893089AFD
:1013DC00049B9A42DDD3059B18460BB05DF804FBC9
:1013EC0000B58BB00190019B0793079B5B798DF83F
:1013FC001B30019B08939DF81B30013B0593002388
:10140C00099305E0089B1B680893099B013309931A
:10141C00099A059B9A42F5D3089B1B680493019B80
:10142C000893002309930BE0089B1B68039308990E
:10143C000498FFF747FF039B0893099B013309931B
:10144C009DF81B30099A9A42EED300BF00BF0BB037
:10145C005DF804FB00B585B00190019B0393039BE1
:10146C00043301211846FFF711FE00BF05B05DF8EB
:10147C0004FB00B587B00190019B0593059B0433D9
:10148C0001211846FFF71AFE0346039303AB04939E
:10149C00049B1B78002B02D10198FFF7A1FF00BF22
:1014AC0007B05DF804FB000000B591B00390029109
:1014BC0001920093039B002B03D14349B620FFF705
:1014CC0088FD039B0993039B0F93099BDB881A46AA
:1014DC00099B5B7902FB03F3043B0893009A089B7E
:1014EC009A4203D33849C420FFF773FD099BDB886C
:1014FC000793009B1A1D079BB2FBF3F30E93009B03
:10150C000433079AB3FBF2F2079901FB02F29B1A20
:10151C000D93019B1A68009B1344089A9A4203D2BC
:10152C00089A009BD31A01E0019B1B680C93019B4A
:10153C000C9A1A6005E00F9B1B680F930E9B013BE6
:10154C000E930E9B002BF6D100230B93079A0D9B49
:10155C00D31A0A930A9A0C9B934228BF13460A93F8
:10156C002AE0029A0B9B134406930F9A0D9B13448B
:10157C00043305939DF84830002B05D00A9A059941
:10158C00069801F01BFE04E00A9A0699059801F0F2
:10159C0015FE00230D930F9B1B680F930C9A0A9B4F
:1015AC00D31A0C930B9A0A9B13440B93079A0C9B1C
:1015BC00934228BF13460A930C9B002BD1D100BF3A
:1015CC0000BF11B05DF804FB7834000000B589B0A1
:1015DC000590049103920293039B079307AA00239F
:1015EC000093029B04990598FFF75EFF079B039AF3
:1015FC009A4203D00349F620FFF7EBFC00BF09B079
:10160C005DF804FB7834000082B00190019B9B686C
:10161C0000229A60019B9B6800221A61019B9B68C7
:10162C0000225A61019B9B680022DA60019B9B6837
:10163C0000225A60019B9B6800221A6000BF02B016
:10164C007047000000B585B00190019800F00EF8CD
:10165C000390039B002B01D0039B00E0024B184628
:10166C0005B05DF804FB00BFF434000086B00190B7
:10167C00164B0593164B04931FE0049A059BD31A43
:10168C00DB10DA0F13445B10DB00059A1344039351
:10169C00039B1B680293029A019B9A4202D9039BFB
:1016AC0004930AE0029A019B9A4203D2039B0833EB
:1016BC00059302E0039B5B6804E0059A049B9A4245
:1016CC00DBD30023184606B0704700BFC8380000B3
:1016DC00E039000000B585B00190019B002B0AD0C9
:1016EC00074B43F001030393019B9B010293039B64
:1016FC000298984700E000BF05B05DF804FB00BFFE
:10170C00103A000000B583B00190019B1B6818468D
:10171C0000F077F80346002B04D10B494FF4F67018
:10172C00FFF757FC019B1B681F2B02D84FF0A043FF
:10173C0006E0019B1B6803F01F02019B1A60034B20
:10174C00184603B05DF804FBE039000000030050BC
:10175C0000B585B0019001AB1846FFF7D3FF03909D
:10176C00019B012202FA03F31946039800F035F8A5
:10177C0000BF05B05DF804FB00B585B0019001AB6E
:10178C001846FFF7BFFF0390019B012202FA03F3F7
:10179C001946039800F02BF800BF05B05DF804FB68
:1017AC0000B585B0019001AB1846FFF7ABFF039075
:1017BC00039800F00AF80246019B22FA03F303F0A7
:1017CC000103184605B05DF804FB82B00190019B43
:1017DC00D3F81035184602B0704782B001900091D2
:1017EC00019B009AC3F8082500BF02B0704782B075
:1017FC0001900091019B009AC3F80C2500BF02B028
:10180C00704784B00190019B5B0902930023039302
:10181C00029B002B03D0029B012B04D007E04FF05E
:10182C00FF33039303E04FF6FF73039300BF019B59
:10183C0003F01F030193039A019B22FA03F303F0B5
:10184C000103002B14BF01230023DBB2184604B0A4
:10185C00704700B585B001904FF0A042019B1B680A
:10186C0003F5E07340F20C6142F823104FF0A042F4
:10187C00019B5B6803F5E07340F20C6142F82310A6
:10188C00019B1B681846FFF763FF019B5B681846BA
:10189C00FFF75EFF4FF0A042019B1B6803F5E0735E
:1018AC0040F20D6142F823104FF0A042019B5B689F
:1018BC0003F5E07340F20D6142F823100420FFF7AA
:1018CC0009FF002303931EE0019B5B681846FFF79A
:1018DC0067FF0346002B03D0039B002B17D124E09A
:1018EC00019B1B681846FFF747FF0420FFF7F2FE29
:1018FC00019B1B681846FFF72BFF0420FFF7EAFE3D
:10190C00039B01330393039B082BDDDD00E000BF39
:10191C00019B5B681846FFF72FFF0420FFF7DAFEE8
:10192C00019B5B681846FFF713FF05B05DF804FBDD
:10193C0000B589B001900091009B0793019B1B7827
:10194C008DF80C30019B1B798DF81030019B5B7965
:10195C008DF81130019B9B68DBB28DF81230019B26
:10196C00DB68DBB28DF81330019B1B690593019B7F
:10197C005B690693074A079B52F823300649079A7E
:10198C0051F8221003AA1046984700BF09B05DF821
:10199C0004FB00BFB4050020BC05002000B587B0D7
:1019AC000390029101920093039B1B7805931249BB
:1019BC00059B019A41F823201049059B009A41F898
:1019CC002320029B5B7B002B02D00298FFF741FF88
:1019DC0000230493039B181D019B002B01D0084A84
:1019EC0000E00022059B029900F02AFB0490049B66
:1019FC00184607B05DF804FBB4050020BC050020B8
:101A0C003D19000008B5064B1B68002B03D1054996
:101A1C005120FFF7DEFA024B1B68984700BF08BD48
:101A2C00C40500201C3A000082B00190019B044ABE
:101A3C00934201D1034B00E00023184602B07047DB
:101A4C0000200040C405002000B587B00190009133
:101A5C00019B002B03D118497720FFF7BAFA0198A4
:101A6C00FFF7E2FF0590059B002B1ED000238DF89D
:101A7C0013300020FFF766FA059B1B79002B03D06F
:101A8C0001238DF8133005E0059B009A1A60059B25
:101A9C0001221A710020FFF769FA9DF81330002B10
:101AAC0003D011230393039B02E000230393039BB6
:101ABC00184607B05DF804FB1C3A000082B00346E0
:101ACC008DF807309DF90730002B0CDB9DF80730A3
:101ADC0003F01F0205499DF907305B09012000FA4C
:101AEC0002F241F8232000BF02B0704700E100E091
:101AFC0082B003468DF807309DF90730002B0DDBC3
:101B0C009DF8073003F01F0206499DF907305B0969
:101B1C00012000FA02F2603341F8232000BF02B02A
:101B2C00704700BF00E100E082B0034600918DF8E1
:101B3C0007309DF90730002B0ADB009BDAB20C4909
:101B4C009DF907305201D2B20B4483F800230BE00D
:101B5C00009BDAB207499DF8073003F00F03043BF2
:101B6C005201D2B20B441A7600BF02B0704700BFCC
:101B7C0000E100E000ED00E082B00190019B03F079
:101B8C006043B3F1005F0CBF01230023DBB21846A6
:101B9C0002B0704782B00190019B1B0B5BB21846E0
:101BAC0002B0704700B583B003460A468DF8073083
:101BBC0013468DF806309DF80630072B03D90849DB
:101BCC006B20FFF706FA9DF806209DF907301146A9
:101BDC001846FFF7A9FF00BF03B05DF804FB00BF78
:101BEC00983A000000B583B003468DF807309DF994
:101BFC0007301846FFF762FF00BF03B05DF804FB27
:101C0C0000B583B003468DF807309DF907301846B0
:101C1C00FFF76EFF00BF03B05DF804FB82B00190CC
:101C2C000B468DF803309DF80330019A13440122C2
:101C3C001A6000BF02B0704784B001900B46ADF83B
:101C4C000230BDF80230019A134400221A60BDF82C
:101C5C000230019A13441B680393039B00BF04B02A
:101C6C00704782B001900B46ADF80230BDF80230DF
:101C7C00019A13441B68002B14BF01230023DBB211
:101C8C00184602B0704782B001900091019B009AF7
:101C9C00C3F8042300BF02B0704782B001900091DA
:101CAC00019B009AC3F8082300BF02B0704782B0B2
:101CBC000190019B0622C3F8002500BF02B07047BB
:101CCC0082B00190019B0022C3F8002500BF02B036
:101CDC00704784B0039002910192039B029AC3F85F
:101CEC000825039B019AC3F80C2500BF04B070476C
:101CFC0082B001900091019B009AC3F8242500BF8B
:101D0C0002B0704784B00190019BD3F8C4340393A4
:101D1C00019B039AC3F8C424039B184604B0704774
:101D2C0082B001900B468DF803309DF80320019B87
:101D3C00C3F8882500BF02B0704784B003900291AD
:101D4C000192029A039BC3F84425039B019AC3F8A2
:101D5C00482500BF04B0704784B0039002910192F3
:101D6C00029A039BC3F83425039B019AC3F83825C8
:101D7C0000BF04B0704782B001900091019B009AA3
:101D8C00C3F8002200BF02B0704782B00190019BE3
:101D9C00D3F84C35184602B0704782B00190019BC5
:101DAC00D3F80032184602B0704782B00190019B04
:101DBC00D3F83C35184602B0704782B00190019BB5
:101DCC000122C3F8502500BF02B0704782B00190C9
:101DDC00019B0022C3F8502500BF02B0704782B0AF
:101DEC000190019B0122C3F8402500BF02B070474F
:101DFC0082B00190019B0022C3F8402500BF02B0C5
:101E0C007047000000B583B00190019B1B68184619
:101E1C0000F04FF80346002B04D10B494FF4F67039
:101E2C00FFF7D7F8019B1B681F2B02D84FF0A0437C
:101E3C0006E0019B1B6803F01F02019B1A60034B19
:101E4C00184603B05DF804FBC83A000000030050CC
:101E5C0000B585B00190084611461A4603468DF828
:101E6C0003300B468DF8023013468DF8013001AB70
:101E7C001846FFF7C7FF03909DF803209DF802302A
:101E8C005B001A439DF801309B001A439DF81830F3
:101E9C001B0242EA03019DF81C301B04019A1943F2
:101EAC00039B02F5E07243F8221000BF05B05DF809
:101EBC0004FB84B00190019B5B0902930023039304
:101ECC00029B002B03D0029B012B04D007E04FF0A8
:101EDC00FF33039303E04FF6FF73039300BF019BA3
:101EEC0003F01F030193039A019B22FA03F303F0FF
:101EFC000103002B14BF01230023DBB2184604B0EE
:101F0C00704784B0019003230393019B03F00103FA
:101F1C00002B02D04FF402430393019B03F0020306
:101F2C00002B02D048F201230393019B03F004031E
:101F3C00002B02D048F202230393039B184604B0F3
:101F4C007047000000B585B00190009101238DF819
:101F5C000F30009B1B7B032B56D801A252F823F0A9
:101F6C00E51F0000FD1F0000BD1F00007D1F0000CD
:101F7C00009B9B6803F48023002B07D00198FFF78C
:101F8C0004FF0246009B1B699A420DD1009B9B6883
:101F9C0003F48023002B39D10198FFF7F6FE02469B
:101FAC00009B5B699A4231D000238DF80F302DE0F5
:101FBC000198FFF7EAFE0246009B1B699A4207D183
:101FCC000198FFF7F2FE0246009B5B699A421FD014
:101FDC0000238DF80F301BE00198FFF7D6FE024668
:101FEC00009B1B699A4215D000238DF80F3011E02D
:101FFC000198FFF7DAFE0246009B1B699A420BD050
:10200C0000238DF80F3007E000BF06E000BF04E0AE
:10201C0000BF02E000BF00E000BF9DF80F3083F06E
:10202C000103DBB2002B05D00198FFF749FE0198A4
:10203C00FFF73DFE9DF80F30184605B05DF804FB28
:10204C0000B58BB00590049103920293049B002B76
:10205C0003D14A49E720FEF7BCFF049B1A68049B96
:10206C005B689A4203D14549E820FEF7B2FF059B15
:10207C001B791A46342302FB03F3414A1344089399
:10208C00089B93F82D30002B03D008230793079B54
:10209C0070E0059B1A68059B1B791946394B53F860
:1020AC00213019461046FFF7CFFC0346002B03D016
:1020BC0011230793079B5DE0089B039A1A60089B0A
:1020CC00029A5A60089B00229A60089B002283F8AF
:1020DC003020089B002283F82F20049B5A7B089BFE
:1020EC0083F83220049B1868002301930623009385
:1020FC00032300220021FFF7ABFE049B586800234A
:10210C00019306230093032300220021FFF7A0FE76
:10211C00059B1B680993049B1968049B5B681A4612
:10212C000998FFF7D6FD049B9B6819460998FFF7A1
:10213C00DFFD089B1B68002B15D0059B1B68184600
:10214C00FFF728FD03461A46049B1B7B19461046D5
:10215C00FFF728FD059B1B681846FFF71BFD034680
:10216C001846FFF73FFD089B012283F82D20002322
:10217C000793079B18460BB05DF804FB003B00006F
:10218C00CC050020783B000000B585B00190019B88
:10219C001B791A46342302FB03F30D4A13440393B1
:1021AC00039B93F82D30012B04D00A4940F24F10B9
:1021BC00FEF70FFF019B1B681846FFF778FD039B8A
:1021CC00022283F82D2000BF05B05DF804FB00BF90
:1021DC00CC050020003B000000B583B001900091BD
:1021EC00009B03F00103002B03D00198FFF7E5FDE2
:1021FC0002E00198FFF7EAFD009B03F00203002BBD
:10220C0003D00198FFF7EBFD02E00198FFF7F0FD1A
:10221C0000BF03B05DF804FB30B589B003900291A8
:10222C00019200930023079308238DF81B30039B26
:10223C00002283F82E20019BDB681846FFF79CFCDC
:10224C00034683F00103DBB2002B03D0102307936A
:10225C00079BFDE19D490298FFF71FFD039B93F837
:10226C002F30DBB2002B09D0039B9B6819460298D8
:10227C00FFF709FD11230793079BE9E1009B03F08E
:10228C000403002B06D1009B03F01003002B01D19B
:10229C00012300E0002303F00103DAB2039B83F86F
:1022AC002F20039B019A03F10C0415460FCD0FC48C
:1022BC002B682360009B1B0903F00103002B14BF48
:1022CC0001230023DAB2039B83F83020039B009A8E
:1022DC001A62019B5B7819460298FFF721FD4FF4B7
:1022EC0082710298FFF7A8FC4FF492710298FFF7E5
:1022FC00A3FC4FF4B0710298FFF79EFC4FF4A4714D
:10230C000298FFF799FC00990298FFF765FF019B73
:10231C001B78032B00F2DE8001A252F823F000BFE1
:10232C005F240000A7240000072400003D230000C8
:10233C00009B03F01003002B04D065494FF4D970B7
:10234C00FEF747FE009B03F00803002B04D0604906
:10235C0040F2B310FEF73DFE009B03F00403002B8C
:10236C0004D05B494FF4DA70FEF733FE019B1B6916
:10237C001846FFF701FC034683F00103DBB2002B88
:10238C0003D010230793079B62E14FF480710298EE
:10239C00FFF7F1FC019BD968019B5B681A46029818
:1023AC00FFF7CBFC4FF4A8710298FFF745FC2021F6
:1023BC000298FFF733FC08210298FFF72FFC00BFAF
:1023CC004FF4A8710298FFF74CFC034683F001030D
:1023DC00DBB2002BF4D14FF4A8710298FFF72CFC60
:1023EC00019B1969019B9B681A460298FFF7A5FC93
:1023FC00039B4FF480229A606FE0019BD968019B8C
:10240C005B681A460298FFF798FC019B1B691846FB
:10241C00FFF7B2FB034683F00103DBB2002B03D0C2
:10242C0010230793079B13E1019B1969019B9B6880
:10243C001A460298FFF790FC4FF484510298FFF76C
:10244C009AFC039B02229A6020210298FFF7E6FB7C
:10245C0043E0019BD968019B5B681A460298FFF721
:10246C006CFC009B03F02003002B09D04FF480710F
:10247C000298FFF780FC039B4FF480229A6007E0E0
:10248C004FF400710298FFF776FC039B02229A60CE
:10249C0020210298FFF7C2FB1FE0019BD968019B2A
:1024AC005B681A460298FFF757FC4FF4805102986C
:1024BC00FFF761FC039B02229A6000238DF81B300E
:1024CC0020210298FFF7AAFB07E000BF02029C0143
:1024DC00003B00000723079300BF009B03F0080399
:1024EC00002B09D1019B1B78032B05D09DF81B30C9
:1024FC0019460298FFF792FB039B1B68002B1FD019
:10250C00009B03F00403002B02D0039B00229A6073
:10251C00009B03F04003002B05D1039B9B6843F009
:10252C000202039B9A60039B9B6843F40072039B1B
:10253C009A60039B9B6819460298FFF7A4FB86E000
:10254C0000238DF81A304FF4A4710298FFF789FB21
:10255C000346002B02D001238DF81A304FF4827100
:10256C000298FFF77EFB0346002B07D04FF48271D5
:10257C000298FFF761FB01238DF81A304FF492712A
:10258C000298FFF76EFB0346002B38D04FF4927184
:10259C000298FFF751FB4FF4B0710298FFF761FB03
:1025AC0003468DF819300298FFF7F7FB05909DF85C
:1025BC00193083F00103DBB2002B04D1059B03F42B
:1025CC000073002B0AD120210298FFF727FB14215E
:1025DC000298FFF723FB00238DF81A309DF8193071
:1025EC00002B0CD0059B03F48073002B07D04FF409
:1025FC00A4710298FFF720FB00238DF81A309DF888
:10260C001A3083F00103DBB2002B9CD10298FFF748
:10261C0079FB0490039B002283F82F20049B002B52
:10262C0004D00498FFF76DFC079010E0009B03F0BA
:10263C004003002B0BD103990298FFF783FC034650
:10264C0083F00103DBB2002B01D003230793079B1C
:10265C00184609B030BD00BF00B587B00390029199
:10266C000192039B1B79002B09D1029B5B68B3F58C
:10267C00803F04D2029B9B68B3F5803F04D31B4977
:10268C0040F26A20FEF7A5FC00230593039B1B79FF
:10269C001A46342302FB03F3154A13440493049B98
:1026AC001B68002B08D1029B1B78022B04D10F490D
:1026BC0040F27220FEF78DFC049B1B68002B08D1A6
:1026CC00029B1B78032B04D1084940F27320FEF7C0
:1026DC0080FC039B1968019B029A0498FFF79CFDF0
:1026EC000590059B184607B05DF804FB003B000005
:1026FC00CC05002000B58BB00390019200930B46E3
:10270C008DF80B3000238DF814309DF80B308DF8BC
:10271C001530009B069300230793019B089300231D
:10272C0009939DF83030002B01D0202200E00022CC
:10273C0005AB19460398FFF78FFF034618460BB0FD
:10274C005DF804FB00B58BB00390019200930B462F
:10275C008DF80B3001238DF814309DF80B308DF86B
:10276C001530009B069300230793019B08930023CD
:10277C00099305AB002219460398FFF76DFF03463A
:10278C0018460BB05DF804FB30B58BB0019000918E
:10279C00009B1B68002B04D1A24940F2C120FEF71C
:1027AC0018FC4FF492710198FFF75BFA0346002B6B
:1027BC003ED04FF492710198FFF73EFA4FF48271BC
:1027CC000198FFF74EFA034683F00103DBB2002BAE
:1027DC002ED0009B9B6819460198FFF75EFA009B70
:1027EC0002229A60009B9B6819460198FFF74BFAEE
:1027FC004FF4B0710198FFF734FA034683F00103EC
:10280C00DBB2002B07D10198FFF7C7FA034603F49C
:10281C000073002B07D120210198FFF7FFF9142139
:10282C000198FFF7FBF9009B012283F82E20F6E0BC
:10283C004FF482710198FFF714FA0346002B5DD018
:10284C004FF482710198FFF7F7F9009B1B6A03F0B4
:10285C004003002B1AD1009B93F82E3083F0010318
:10286C00DBB2002B12D000990198FFF76BFB0346EB
:10287C00002B14BF01230023DBB283F00103DBB276
:10288C0003F00103DAB2009B83F82E20009B1B6A35
:10289C0003F00403002B79D1009B04AC03F10C056D
:1028AC000FCD0FC42B6823604FF4B0710198FFF764
:1028BC00C3F94FF4AE710198FFF7BEF9009B93F882
:1028CC00303083F00103DBB2002B04D1009B93F872
:1028DC002E30002B5AD000210198FFF74CFA009BA8
:1028EC0000229A6050490198FFF7D7F90198FFF739
:1028FC0051F903461846FFF783F947E04FF4A471EA
:10290C000198FFF799F9009B1B7B002B22D1009BB0
:10291C0004AC03F10C050FCD0FC42B682360009B96
:10292C0093F8303083F00103DBB2002B2ED0002162
:10293C000198FFF720FA009B00229A603A4901980F
:10294C00FFF7ABF90198FFF725F903461846FFF797
:10295C0057F91BE04FF400710198FFF70CFA009B3C
:10296C0040F202229A6030490198FFF796F9009BD9
:10297C009B6819460198FFF786F908210198FFF723
:10298C004DF920210198FFF749F948E00198FFF72C
:10299C00B9F90990099B03F00203002B03D0012322
:1029AC008DF80C301DE0099B03F00403002B03D0C1
:1029BC0002238DF80C3014E0099B03F00103002B6B
:1029CC0003D003238DF80C300BE0009B93F82E30D2
:1029DC00002B03D004238DF80C3002E000238DF87B
:1029EC000C30009B93F8303083F00103DBB2002BEA
:1029FC0003D0009B002283F82F20009B1B6A03F05E
:102A0C000403002B04D0009B93F82E30002B06D02F
:102A1C00009B1B68009A516803AA104698470BB09C
:102A2C0030BD00BF003B000002029C0108B5034909
:102A3C000348FFF7A9FE00BF08BD00BFCC0500206E
:102A4C000030004000B585B00190019B002B0AD0EE
:102A5C00074B43F001030393019B9B010293039BE0
:102A6C000298984700E000BF05B05DF804FB00BF7A
:102A7C00C03D000000B583B00190019B002B0AD033
:102A8C004FF47A70FFF7DEFF019B013B0193019B32
:102A9C00002BF5D100E000BF03B05DF804FB000093
:102AAC0000B583B000210020FDF7C8FC0190019B0C
:102ABC00002B04D0114A14210198FEF797F9FDF769
:102ACC007FFC00F0D9FA00F043FB6A460DF10203DB
:102ADC001146184600F04BFB094A0A4BD31ADB0887
:102AEC001B0443F00503BDF8002007491846FDF709
:102AFC00F5FE0520FFF7BEFFE5E700BF3C3D0000FB
:102B0C004832000028320000B83D0000BFF34F8F60
:102B1C0000BF064BDB6803F4E0620449044B13432B
:102B2C00CB60BFF34F8F00BF00BFFDE700ED00E0AF
:102B3C000400FA0582B0124B1B680193114B1B6801
:102B4C000093019B082B17D1009B032B12D801A2D9
:102B5C0052F823F0712B0000752B0000792B00002C
:102B6C007D2B0000012308E0012306E0012304E093
:102B7C00012302E0012300E00023184602B0704755
:102B8C00300100103401001082B0124B1B6801930D
:102B9C00114B1B680093019B082B17D1009B032B37
:102BAC0012D801A252F823F0C52B0000C92B00004B
:102BBC00CD2B0000D12B0000012308E0012306E0FF
:102BCC00012304E0012302E0012300E00023184666
:102BDC0002B07047300100103401001082B0124B6B
:102BEC001B680193114B1B680093019B082B17D199
:102BFC00009B032B12D801A252F823F0192C0000D1
:102C0C001D2C0000212C0000252C0000012308E0C5
:102C1C00002306E0002304E0002302E0002300E090
:102C2C000023184602B07047300100103401001028
:102C3C0082B0124B1B680193114B1B680093019BD4
:102C4C00082B17D1009B032B12D801A252F823F0AA
:102C5C006D2C0000712C0000752C0000792C0000EC
:102C6C00012308E0002306E0002304E0002302E037
:102C7C00002300E00023184602B07047300100101A
:102C8C003401001082B0124B1B680193114B1B686E
:102C9C000093019B082B17D1009B032B12D801A288
:102CAC0052F823F0C12C0000C52C0000C92C0000E8
:102CBC00CD2C0000012308E0002306E0002304E0F3
:102CCC00002302E0002300E00023184602B0704706
:102CDC00300100103401001082B0124B1B680193BC
:102CEC00114B1B680093019B082B17D1009B032BE6
:102CFC0012D801A252F823F0152D0000192D000056
:102D0C001D2D0000212D0000012308E0002306E00A
:102D1C00002304E0002302E0002300E00023184617
:102D2C0002B07047300100103401001082B0124B19
:102D3C001B680193114B1B680093019B082B17D147
:102D4C00009B032B12D801A252F823F0692D00002E
:102D5C006D2D0000712D0000752D0000012308E081
:102D6C00012306E0012304E0012302E0012300E03B
:102D7C000023184602B070473001001034010010D7
:102D8C00024B034A1A6000BF704700BF04000020CA
:102D9C000090D00308B5FFF7CDFE0346002B0ED0F4
:102DAC004FF080430022C3F80C214FF080430022E7
:102DBC00C3F810214FF080430022C3F83825FFF7E9
:102DCC00E3FE0346002B76D04FF080537D4AD3F8B8
:102DDC000434C2F820354FF080537A4AD3F80834C3
:102DEC00C2F824354FF08053764AD3F80C34C2F82D
:102DFC0028354FF08053734AD3F81034C2F82C3571
:102E0C004FF080536F4AD3F81434C2F830354FF07A
:102E1C0080536C4AD3F81834C2F834354FF08053D1
:102E2C00684AD3F81C34C2F840354FF08053654AD9
:102E3C00D3F82034C2F844354FF08053614AD3F8AC
:102E4C002434C2F848354FF080535E4AD3F8283406
:102E5C00C2F84C354FF080535A4AD3F82C34C2F890
:102E6C0050354FF08053574AD3F83034C2F85435AC
:102E7C004FF08053534AD3F83434C2F860354FF0D6
:102E8C008053504AD3F83834C2F864354FF080532D
:102E9C004C4AD3F83C34C2F868354FF08053494A59
:102EAC00D3F84034C2F86C354FF08053454AD3F810
:102EBC004434C2F87035FFF791FE0346002B02D064
:102ECC00414B424A1A60FFF7B3FE0346002B03D076
:102EDC003F4BFB22C3F81825FFF7D4FE0346002B0B
:102EEC000AD03C4B1B6823F00F023B4B1B6803F0D2
:102EFC000F03384913430B60FFF7EEFE0346002B1C
:102F0C0003D0364B4FF400721A60FFF70FFF0346E5
:102F1C00002B0DD04FF08043D3F8003403F00103A5
:102F2C00002B05D04FF080436FF00102C3F8002452
:102F3C002B4BD3F888302A4A43F47003C2F88830FC
:102F4C00BFF34F8F00BFBFF36F8F00BF4FF0102345
:102F5C00D3F80032002B05DB4FF01023D3F80432EA
:102F6C00002B2BDA1F4B0122C3F8042500BF1D4B8D
:102F7C00D3F80034002BFAD04FF010231222C3F8F0
:102F8C00002200BF174BD3F80034002BFAD04FF0BF
:102F9C0010231222C3F8042200BF124BD3F80034C2
:102FAC00002BFAD00F4B0022C3F8042500BF0D4BA9
:102FBC00D3F80034002BFAD0FFF7A8FDFFF7E0FEA2
:102FCC0000BF08BD00C000408C5600404881030083
:102FDC0000F00040E40E0040580200104096024001
:102FEC0000ED00E000E0014000B583B00190019BD2
:102FFC0004331846FFF7C8F800BF03B05DF804FBB4
:10300C0000B589B0059003921A460B468DF8133023
:10301C0013468DF8123000230793059B181D9DF85D
:10302C0012209DF813109DF8283000931346039A34
:10303C00FFF760FB0790079B184609B05DF804FB8F
:10304C0000B587B0039001921A460B468DF80B30F1
:10305C0013468DF80A3000230593039B181D9DF829
:10306C000A309DF80B10019AFFF76CFB0590059B3D
:10307C00184607B05DF804FB00B587B001AB002221
:10308C001A605A609A60DA601C2301931D23029324
:10309C004FF0CD63039306238DF8103001A9002364
:1030AC0000220948FEF77AFC0590059B002B04D002
:1030BC00064A17210598FDF799FE0348FFF794FF80
:1030CC0000BF07B05DF804FBC83D0000D83D000010
:1030DC0000B587B003460A468DF80F3013468DF8BD
:1030EC000E309DF80F308DF814309DF80E308DF8A1
:1030FC00153005AA00230093022357210348FFF73C
:10310C007FFF00BF07B05DF804FB00BFC83D0000A7
:10311C0000B585B0034602918DF80F3013468DF83B
:10312C000E300DF10F0201230093012357210748A4
:10313C00FFF766FF9DF80E30029A57210348FFF700
:10314C007FFF00BF05B05DF804FB00BFC83D000069
:10315C0008B50B210620FFF7BBFF53210720FFF713
:10316C00B7FF8F210920FFF7B3FF00BF08BD00B5E3
:10317C0085B00190009103AB042219460520FFF79E
:10318C00C7FF9DF80C301B021AB29DF80D301BB214
:10319C0013431BB29AB2019B1A809DF80E301B028E
:1031AC001AB29DF80F301BB213431BB29AB2009B9C
:1031BC001A8000BF05B05DF804FB0000844640EAAD
:1031CC00010313F0030F16D18446202A0AD32DE9EC
:1031DC00F007B1E8F807A0E8F807203A202AF8D25F
:1031EC00BDE8F007042A06D351F8043B40F8043B31
:1031FC00043A042AF8D22AB111F8013B00F8013B39
:10320C00013AF9D160467047072904D90023024AD4
:0C321C00C0E9003110607047000600207F
:10322800183A000000000000F83A00000000000012
:10323800DC3B000000000000BC3C00000000000077
:083248007032000000000303D6
:10325000D0000020080000201000002010000020F6
:043260001800000052
:10326400D80000207F000000580100206170700029
:10327400433A5C55736572735C6D616866755C4F47
:103284006E6544726976655C446F63756D656E74D2
:10329400735C6E5246355F53444B5F31372E302E8C
:1032A400325F643637346464655C6E5246355F530E
:1032B400444B5F31372E302E325F643637346464CA
:1032C400655C636F6D706F6E656E74735C6C696260
:1032D4007261726965735C6C6F675C7372635C6E58
:1032E40072665F6C6F675F66726F6E74656E642E74
:1032F400630000004261636B656E647320666C75E5
:103304007368656400000000415353455254494FAB
:103314004E204641494C45442061742025733A258A
:10332400750000004552524F52202575205B2573CD
:103334005D2061742025733A25750D0A5043206180
:10334400743A20307825303878000000456E6420C7
:103354006F66206572726F72207265706F7274008E
:10336400554E4B4E4F574E204641554C5420617498
:103374002030782530385800433A5C5573657273B1
:103384005C6D616866755C4F6E6544726976655CF8
:10339400446F63756D656E74735C6E5246355F532E
:1033A400444B5F31372E302E325F643637346464D9
:1033B400655C6E5246355F53444B5F31372E302E79
:1033C400325F643637346464655C636F6D706F6E4E
:1033D400656E74735C6C69627261726965735C7545
:1033E40074696C5C6170705F7574696C5F706C613A
:1033F40074666F726D2E6300433A5C557365727325
:103404005C6D616866755C4F6E6544726976655C77
:10341400446F63756D656E74735C6E5246355F53AD
:10342400444B5F31372E302E325F64363734646458
:10343400655C6E5246355F53444B5F31372E302EF8
:10344400325F643637346464655C636F6D706F6ECD
:10345400656E74735C6C69627261726965735C62D7
:10346400616C6C6F635C6E72665F62616C6C6F63DF
:103474002E630000433A5C55736572735C6D61683A
:1034840066755C4F6E6544726976655C446F6375FE
:103494006D656E74735C6E5246355F53444B5F3199
:1034A400372E302E325F643637346464655C6E5276
:1034B40046355F53444B5F31372E302E325F6436CE
:1034C40037346464655C636F6D706F6E656E7473BE
:1034D4005C6C69627261726965735C6D656D6F6263
:1034E4006A5C6E72665F6D656D6F626A2E63000062
:1034F400556E6B6E6F776E206572726F7220636F9C
:10350400646500004E52465F535543434553530090
:103514004E52465F4552524F525F5356435F4841A5
:103524004E444C45525F4D495353494E47000000A9
:103534004E52465F4552524F525F534F4654444594
:10354400564943455F4E4F545F454E41424C4544B6
:10355400000000004E52465F4552524F525F494EA2
:103564005445524E414C00004E52465F4552524F14
:10357400525F4E4F5F4D454D000000004E52465F76
:103584004552524F525F4E4F545F464F554E440082
:103594004E52465F4552524F525F4E4F545F535501
:1035A40050504F52544544004E52465F4552524F7C
:1035B400525F494E56414C49445F504152414D007F
:1035C4004E52465F4552524F525F494E56414C4906
:1035D400445F5354415445004E52465F4552524F46
:1035E400525F494E56414C49445F4C454E475448FE
:1035F400000000004E52465F4552524F525F494E02
:1036040056414C49445F464C414753004E52465F35
:103614004552524F525F494E56414C49445F4441D2
:10362400544100004E52465F4552524F525F44414E
:1036340054415F53495A45004E52465F4552524FDA
:10364400525F54494D454F55540000004E52465F59
:103654004552524F525F4E554C4C00004E52465FFD
:103664004552524F525F464F5242494444454E00E0
:103674004E52465F4552524F525F494E56414C4955
:10368400445F4144445200004E52465F4552524FFB
:10369400525F4255535900004E52465F4552524FB5
:1036A400525F4D4F44554C455F4E4F545F494E4910
:1036B4005449414C495A4544000000004E52465F6B
:1036C4004552524F525F4D555445585F494E4954E7
:1036D4005F4641494C4544004E52465F4552524F65
:1036E400525F4D555445585F4C4F434B5F464149DB
:1036F4004C4544004E52465F4552524F525F4D5521
:103704005445585F554E4C4F434B5F4641494C45D9
:10371400440000004E52465F4552524F525F4D5591
:103724005445585F434F4E445F494E49545F4641A8
:10373400494C4544000000004E52465F4552524FEA
:10374400525F4D4F44554C455F414C52454144599D
:103754005F494E495449414C495A454400000000D0
:103764004E52465F4552524F525F53544F52414757
:10377400455F46554C4C00004E52465F4552524FF1
:10378400525F4150495F4E4F545F494D504C454D37
:10379400454E5445440000004E52465F4552524F38
:1037A400525F464541545552455F4E4F545F454E16
:1037B40041424C45440000004E52465F4552524F30
:1037C400525F494F5F50454E44494E470000000048
:1037D4004E52465F4552524F525F4452565F5457C1
:1037E400495F4552525F4F56455252554E000000B4
:1037F4004E52465F4552524F525F4452565F5457A1
:10380400495F4552525F414E41434B004E52465F21
:103814004552524F525F4452565F5457495F455286
:10382400525F444E41434B004E52465F4552524F05
:10383400525F424C455F495053505F52585F504B62
:10384400545F5452554E4341544544004E52465FD2
:103854004552524F525F424C455F495053505F436B
:1038640048414E4E454C5F414C52454144595F4599
:1038740058495354530000004E52465F4552524F2C
:10388400525F424C455F495053505F4C494E4B5F29
:10389400444953434F4E4E454354454400000000B1
:1038A4004E52465F4552524F525F424C455F49501B
:1038B40053505F504545525F52454A454354454431
:1038C40000000000000000000835000001000000B6
:1038D400143500000200000034350000030000002D
:1038E40058350000040000006C350000050000009D
:1038F4008035000006000000943500000700000039
:10390400AC35000008000000C435000009000000C8
:10391400DC3500000A000000F83500000B00000050
:10392400103600000C000000283600000D000000D6
:103934003C3600000E000000503600000F0000006E
:103944006036000010000000743600001100000012
:103954008C360000800000009C36000081000000CE
:10396400C036000082000000DC3600008300000046
:10397400F8360000840000001837000085000000BD
:103984003C3700008600000064370000900000000F
:103994007C370000910000009C370000920000007A
:1039A400BC37000000820000D43700000182000010
:1039B400F437000002820000103800000084000088
:1039C4002C380000018400005038000002840000FC
:1039D4007C38000003840000A43800002E2E2F2E13
:1039E4002E2F2E2E2F2E2E2F2E2E2F2E2E2F6D6F6E
:1039F40064756C65732F6E7266782F68616C2F6EB8
:103A040072665F6770696F2E680000000338FDD826
:103A14007047000050525300433A5C55736572730B
:103A24005C6D616866755C4F6E6544726976655C51
:103A3400446F63756D656E74735C6E5246355F5387
:103A4400444B5F31372E302E325F64363734646432
:103A5400655C6E5246355F53444B5F31372E302ED2
:103A6400325F643637346464655C6D6F64756C65AD
:103A7400735C6E7266785C647269766572735C738B
:103A840072635C7072735C6E7266785F7072732EB0
:103A9400630000002E2E2F2E2E2F2E2E2F2E2E2F93
:103AA4002E2E2F2E2E2F696E746567726174696FC6
:103AB4006E2F6E7266782F6E7266785F676C7565AE
:103AC4002E6800002E2E2F2E2E2F2E2E2F2E2E2F30
:103AD4002E2E2F2E2E2F6D6F64756C65732F6E72C4
:103AE40066782F68616C2F6E72665F6770696F2EDF
:103AF400680000005457494D00000000433A5C55EB
:103B0400736572735C6D616866755C4F6E65447253
:103B14006976655C446F63756D656E74735C6E5233
:103B240046355F53444B5F31372E302E325F643657
:103B340037346464655C6E5246355F53444B5F3181
:103B4400372E302E325F643637346464655C6D6FB3
:103B540064756C65735C6E7266785C6472697665B4
:103B640072735C7372635C6E7266785F7477696D8E
:103B74002E630000392A00002E2E2F2E2E2F2E2EDB
:103B84002F2E2E2F2E2E2F2E2E2F696E74656772D8
:103B94006174696F6E2F6E7266782F6E7266785FCD
:103BA400676C75652E6800002E2E2F2E2E2F2E2E5C
:103BB4002F2E2E2F2E2E2F2E2E2F6D6F64756C65AB
:103BC400732F6E7266782F68616C2F6E72665F67F2
:103BD40070696F2E680000005541525400000000C7
:103BE400433A5C55736572735C6D616866755C4FCE
:103BF4006E6544726976655C446F63756D656E7459
:103C0400735C6E5246355F53444B5F31372E302E12
:103C1400325F643637346464655C6E5246355F5394
:103C2400444B5F31372E302E325F64363734646450
:103C3400655C6D6F64756C65735C6E7266785C64EC
:103C44007269766572735C7372635C6E7266785FB8
:103C5400756172742E6300002E2E2F2E2E2F2E2EA1
:103C64002F2E2E2F2E2E2F2E2E2F696E74656772F7
:103C74006174696F6E2F6E7266782F6E7266785FEC
:103C8400676C75652E6800002E2E2F2E2E2F2E2E7B
:103C94002F2E2E2F2E2E2F2E2E2F6D6F64756C65CA
:103CA400732F6E7266782F68616C2F6E72665F6711
:103CB40070696F2E680000005541525445000000A1
:103CC400433A5C55736572735C6D616866755C4FED
:103CD4006E6544726976655C446F63756D656E7478
:103CE400735C6E5246355F53444B5F31372E302E32
:103CF400325F643637346464655C6E5246355F53B4
:103D0400444B5F31372E302E325F6436373464646F
:103D1400655C6D6F64756C65735C6E7266785C640B
:103D24007269766572735C7372635C6E7266785FD7
:103D340075617274652E6300433A5C5573657273E2
:103D44005C6D616866755C4F6E6544726976655C2E
:103D5400446F63756D656E74735C6E5246355F5364
:103D6400444B5F31372E302E325F6436373464640F
:103D7400655C6E5246355F53444B5F31372E302EAF
:103D8400325F643637346464655C6578616D706C89
:103D940065735C7065726970686572616C5C747778
:103DA400695F6D617833303130315F335C6D6169E7
:103DB4006E2E630025640A00000000000338FDD85D
:103DC40070470000000000000030004000000000C8
:103DD40001000000433A5C55736572735C6D616861
:103DE40066755C4F6E6544726976655C446F637595
:103DF4006D656E74735C6E5246355F53444B5F3130
:103E0400372E302E325F643637346464655C6E520C
:103E140046355F53444B5F31372E302E325F643664
:103E240037346464655C6578616D706C65735C706F
:103E340065726970686572616C5C7477695F6D61E5
:103E44007833303130315F335C4D61783330313029
:063E5400305F332E630015
:083E5C00FF0000000090D003FC
:040000030000037185
:00000001FF
