:1000000000000420750300005D0300005F03000092
:1000100061030000630300006503000000000000AE
:100020000000000000000000000000006703000066
:1000300069030000000000006B0300006D03000076
:100040006F0300006F030000C91600009517000041
:100050006F0300006F0300006F0300006F030000D8
:100060006F0300006F0300006F0300006F030000C8
:100070006F0300006F0300006F0300006F030000B8
:100080006F0300006F0300006F0300006F030000A8
:100090006F0300006F0300006F0300006F03000098
:1000A0006F0300006F0300006F0300006F03000088
:1000B0006F0300006F03000000000000000000005C
:1000C0006F0300006F0300006F0300006F03000068
:1000D0006F0300006F0300006F0300006F03000058
:1000E0006F0300006F0300006F03000000000000BA
:1000F000000000006F030000000000006F0300001C
:1001000000000000000000000000000000000000EF
:1001100000000000000000000000000000000000DF
:1001200000000000000000000000000000000000CF
:1001300000000000000000000000000000000000BF
:1001400000000000000000000000000000000000AF
:10015000000000000000000000000000000000009F
:10016000000000000000000000000000000000008F
:10017000000000000000000000000000000000007F
:10018000000000000000000000000000000000006F
:10019000000000000000000000000000000000005F
:1001A000000000000000000000000000000000004F
:1001B000000000000000000000000000000000003F
:1001C000000000000000000000000000000000002F
:1001D000000000000000000000000000000000001F
:1001E000000000000000000000000000000000000F
:1001F00000000000000000000000000000000000FF
:10020000354936480A1A02D0072291438D463449AF
:1002100034480A1A06D00722914381F30988022242
:1002200082F3148830483149314A00F044F83148AB
:100230003149324A00F03FF831483249324A00F041
:100240003AF832483249334A00F035F832483349F7
:10025000334A00F030F833483349344A00F02BF881
:1002600033483449344A00F026F8344834490022EF
:1002700000F02CF833483449002200F027F83348C6
:100280003349091A082902DB002202604160314A21
:1002900090471F481F49884205D00268043003B4C4
:1002A000904703BCF7E700208646EC46002000217B
:1002B000294A9047FEE7884207D0521A05D00378B2
:1002C00001300B700131013AF9D17047884202D0F8
:1002D00002700130FAE770470000042000E00320BC
:1002E0000000042000000420943A000000000020D8
:1002F00034000020D0030000D00300009C35000033
:10030000943A00000000002000000020E8350000C2
:10031000E8350000E8350000E8350000E835000069
:10032000E8350000E8350000E8350000933A0000A9
:10033000C83A0000340000203400002034000020BF
:1003400050090020500900205009002050090020C9
:10035000502900209D030000D9260000FEE7FEE79B
:10036000FEE7FEE7FEE7FEE7FEE7FEE7FEE7FEE765
:1003700000F002B8FFF7FCBF0F484FF007018843B9
:1003800085460E4880470E48016841F470010160BF
:10039000BFF34F8FBFF36F8FFFF732BF09480A4992
:1003A0000A4A884207D0521A05D0037801300B70F0
:1003B0000131013AF9D1704700000420A929000059
:1003C00088ED00E0E835000000000020000000207B
:1003D000F0B595B01D46164608460C4601F01AF8D1
:1003E0001A9B0D93CDE9086500252B46082205A927
:1003F00020460A958DF82C500C9501F028F8079BA3
:100400000293069B03939DF814308DF8115003F06E
:100410000302012A1DD1BDF81420059DC3F3C203B8
:10042000C2F383168DF81030B20008230EA92046BF
:1004300001F00DF8C5F3952508AB0093324602ABE9
:100440000EA9284600F098FB204600F0E7FF15B003
:10045000F0BD022AF8D1BDF81650C3F3C203C5F3AC
:1004600089158DF810300827082D2E4628BF08263C
:100470003B4632460EA9204600F0E9FFAD1B08AB13
:1004800002AA31460EA8374400F0DAFB002DEBD16A
:10049000DAE70000014B01221A7070477500002056
:1004A0007047000070B5124D06460FCD88B06C46FF
:1004B0000FC495E80F00002E84E80F004FF0FF33C3
:1004C0004FF00602CDE90023CDE90233094A0A487C
:1004D0004FF0EB7308BF00226946069301F0B6F8AF
:1004E00008B100F04BFC054B1E7008B070BD00BF9A
:1004F000E8350000950400000000002034000020D2
:1005000007B5044B0093044A4023FFF761FF03B093
:100510005DF804FB1D0500003500002038B50D4BCB
:100520000D4D002018700D4804782D5DD2B21C4688
:1005300065B1043002F088F808B100F01FFC084BE8
:100540001A7812B12378002BFBD038BD0C3001F0A3
:100550001FFEF1E7750000202406002000000020A7
:100560003400002008B50848084A0378D35C3BB142
:10057000043001F0E5FFBDE808400020FFF792BF1E
:100580000C3001F0A9FDF6E7000000202406002051
:100590000120FFF787BF000008B5FFF7F9FF044807
:1005A000042100F053FA034B01225A7108BD00BF29
:1005B000C435000014000020037813F0040216D0A4
:1005C00003F00303012B03D0022B09D00120704755
:1005D0000A6800880232C0F3831002440A60F5E71B
:1005E0000B684288023303EB92130B60EEE7104670
:1005F000704700002DE9F04F044685B0861C0020AE
:100600000F46154600F012FC3F4A51683960936866
:1006100003F580735B1A924602F21C4702F5836968
:1006200002F21448B34219D30020002D68D004F020
:100630000F039B0143F0050363F30F00DAF8043066
:10064000DAB203321E444AF822000020CAF80460DD
:1006500000F0EEFB012005B0BDE8F08F0121384627
:1006600000F00BFC484600F020FC404600F01DFC6A
:10067000DAF808000090C0B203300AEB8000694647
:10068000FFF79AFF009B30BBDAB20AEB8202D16817
:1006900001919A1C0133DBB20AEB83030092D3F879
:1006A0000CB001F00303012B22D0022B15D083469E
:1006B000404600F0FDFB10B1009BCAF808305946D7
:1006C000384600F0DAFBDAF80830DAF8042003F5EF
:1006D00080739B1AA6E7D8B2CEE7BDF80630C3F305
:1006E000891303334FEA1B4B02EB93030093DFE7BD
:1006F000BDF80430C3F383134FEA1B4B1344F5E7F3
:10070000A40544F0060099E748010020064B07487D
:1007100010B500221A7000F036FE044610B90448E5
:1007200000F09FFE204610BD48010020D435000097
:100730003C36000030B50A4C71B10A4A0A49121B16
:10074000D20800239A4201D1002030BD31F8235055
:10075000854202D00133F5E7034654F83300F4E74D
:100760009C350000C435000000000020094B013911
:1007700003EBC000032909D8DFE801F00A020406F0
:100780000420704700797047407970470020704717
:10079000022070479C350000034BD3E90130C31A97
:1007A00058425841704700BF480100202DE9FF41E1
:1007B000FFF7F2FF0546002840F0E280714CC4F8D4
:1007C0001804BFF34F8FA3680093DBB2033304EB2D
:1007D00083006946FFF7F0FE009B18B1D4F8182497
:1007E000002A55D0DAB2991C013304EB8202DBB245
:1007F00004EB8303D268DB68029302F00303022B4D
:10080000019200914FD1BDF806305F48C3F38917BC
:10081000502F3E4628BF502666F38F1306F108017D
:10082000ADF8063000F0C7FD0546002800F09380C3
:1008300000F0F0FD002301A90822284600F0FDFD8C
:100840000099CB43DBB20133C9B20331B6EB830F5E
:100850004FEA830804EB810122D908234246A6EB24
:100860000806284600F0E9FDF6B2484908F10803F9
:100870003246284600F0E1FD009B033703EB970763
:100880000097D4F81834002B41D1D4F8106451E00B
:1008900062689A4299D8A260284604B0BDE8F08107
:1008A00008233246E5E7012B55D1BDF80430364820
:1008B000C3F38311062928BF062161F3891302318E
:1008C0008900ADF8043000F076FD0546002842D0DE
:1008D00000F0A0FD0023082201A9284600F0ADFD8C
:1008E0000026BDF80420C2F38312B300964203F140
:1008F0000803C6D200994A1CC9B20331009204EB26
:1009000081010422284600F098FD0136E9E72846D7
:1009100000F084FDFFF740FF80F00100C5B2BBE7A7
:10092000F3685B7923B1336829461B6830469847E2
:10093000F3681E68002EF3D1284600F06FFD3046A4
:1009400000F074FAD4F818340BB9009BA3600020AF
:1009500000F06EFADEE7D4F8104454B90C4B0D48A1
:100960000D49C01AC008000440F0020000F05CF815
:10097000D0E7236820469B689847E3681C68ECE74B
:10098000002589E748010020D435000054010020EB
:100990009C350000BC350000253600002DE9F347EA
:1009A00004460E46924601A9012218469946FFF7D1
:1009B00021FE1B4F10B3019D4FF00008AA1CC84533
:1009C00008EB020123D11748002100F033FA80F32D
:1009D0001000000440EA1440E4006B1C04F03804EA
:1009E000DBB2EDB244F0010407EB8303033544EAC4
:1009F000881444EA8624D86047F825403B781BB128
:100A0000FFF7D4FE0028FBD102B0BDE8F087C9B2E1
:100A100007EB81015AF82830CB6008F10108CEE7D6
:100A2000480100206405002000231A46FFF7B6BFE6
:100A30001FB5CDE90023069B0293079B03936A46EB
:100A40000423FFF7ABFF05B05DF804FB30B50F4999
:100A5000D1F8102403460020144634B9DC68207114
:100A60004AB9C1F81034226030BDE4682579854266
:100A700006D02468F1E7D268116821601360F3E7BB
:100A800001300A28E8D14FF0FF30EDE7480100209F
:100A9000084A38B50123D2F8104413701D4604B932
:100AA00038BDE3685D71236820465B689847E3685A
:100AB0001C68F4E74801002007B503460846197A88
:100AC000052911D05B7A2BB1094A0A49019000F03F
:100AD00049FA01980849019000F044FA019803B0DE
:100AE0005DF804EB00F033BA002AF8D0F2E700BF5B
:100AF000483600004D3600006D36000030B5C38822
:100B000085B004460D4633B1144A00921449154A83
:100B1000284600F027FA217A05291DD0637A4BB1C7
:100B2000A088FFF723FE104B104953F820202846D9
:100B300000F018FA227A0E4BA08853F82220039274
:100B40000021FFF7F7FD039A0A490346284605B03E
:100B5000BDE8304000F006BA05B030BD48360000B0
:100B60005836000050360000D43600004D360000E4
:100B7000F8360000703600002DE9F04385B01F46BE
:100B80000C9D002395F80C902B7306460C4690465E
:100B900029463846FFF7B2FFB8F1060F09D8DFE85B
:100BA00008F00412181F283340003146284600F090
:100BB000D9F9002229463846FFF77EFF85F80C90C8
:100BC00005B0BDE8F08322683146284600F0CAF936
:100BD000EFE7D4E900233146284600F0C3F9E8E7FF
:100BE000A36800933146D4E90023284600F0BAF9FF
:100BF000DFE7E3680193A36800933146D4E900235B
:100C0000284600F0AFF9D4E723690293E368019323
:100C1000A36800933146D4E90023284600F0A2F9E6
:100C2000C7E76369039323690293E3680193A368A9
:100C300000933146D4E90023284600F093F9B8E741
:100C400008292DE9F74F80460E4617461C463CD82A
:100C5000002593F80C901D7319461046FFF74EFFC0
:100C6000DFF888A0DFF888B0AE4231D918F8052047
:100C70005946204600F076F90135082DF4D119497E
:100C8000194DDFF870A0204600F06CF94FF0000B12
:100C90005E4522D918F80B207E2A05D8104601920D
:100CA00002F0C2F8019A00B92E225146204600F007
:100CB00059F90BF1010BBBF1080FE9D101222146D3
:100CC0003846FFF7F9FE84F80C9003B0BDE8F08FCA
:100CD0005146204600F046F9CEE72946204600F06E
:100CE00041F9E6E7843600008236000080360000D5
:100CF0007A36000086360000074B1B5C1F2B86BF30
:100D0000064903F01F034FF0A041012202FA03F34A
:100D1000C1F80835704700BF0C37000000030050D1
:100D200008B50020FFF7E8FF0120FFF7E5FF0220EC
:100D3000FFF7E2FFBDE808400320FFF7DDBFC20771
:100D400010B504460CD54FF0A0430322C3F8342756
:100D5000C3F83827C3F83C27C3F84027FFF7E0FF64
:100D6000A3070AD54FF0A0430C22C3F82C27C3F8E1
:100D70003027C3F86027C3F8642710BD1FB50021D2
:100D8000039001AA44F20100CDE9011100F004F83A
:100D900005B05DF804FB000010B572B6FFF778FEF1
:100DA000FFF704FD0028FBD1104B114C1149E41A48
:100DB000E408240444F00100FFF736FE0E4B1B68E4
:100DC000DB0700D500BE0D4944F00200FFF72CFE02
:100DD000BFF34F8F0A490B4BCA6802F4E06213431A
:100DE000CB60BFF34F8F00BFFDE700BF9C35000015
:100DF000BC35000010370000F0ED00E01C370000AB
:100E000000ED00E00400FA0572B6024A13680133EF
:100E10001360704700060020034A1368013B13600B
:100E200003B962B6704700BF00060020FFF7ECBFB1
:100E3000FFF7F2BF10B5034653E8000F0A4643E838
:100E4000002494F0000FF7D110BD10B5034653E80D
:100E5000002F42EA010043E8000494F0000FF6D1AD
:100E600010BD10B5034653E8000F00EA010243E845
:100E7000002494F0000FF6D110BD10B5034653E8DE
:100E8000002F02EB010043E8000494F0000FF6D1BC
:100E900010BD10B5034653E8002FA2EB010043E854
:100EA000000494F0000FF6D110BD0121FFF7CDBF73
:100EB0000021FFF7D6BF10B590B1D0E9012301683A
:100EC0009B1ADBB20A60013BDBB2FF2B026802D146
:100ED0000020107110BD11684C1C14600B70F2E7FB
:100EE0000E20F7E738B504460020FFF79FFF226881
:100EF00063681168994213D9481E106011F8015CAB
:100F0000E368218A01FB0535A36811791B1ADBB25E
:100F1000994200D213710020FFF78AFF284638BD9E
:100F20000025F8E738B5054600200C46FFF77EFFA0
:100F30002A681368591C1160E968641A298AB4FB8D
:100F4000F1F41C70BDE838400020FFF771BF8268E3
:100F500010B504462AB14369016800699847002327
:100F6000A36010BD0EB403B5039921B104AB01AA6F
:100F7000019300F077F802B05DF804EB03B070471E
:100F80000A2938B504460D4602D10D21FFF7F8FFB6
:100F9000A3682268591CA160D554D4E901329A4251
:100FA00004D32046BDE83840FFF7D1BF38BD00006C
:100FB0002DE9F84F9846DDE90A43154682460F466B
:100FC0000A464FF00109AA420FD2C14538BFC146B7
:100FD00013F0010B01D16CB900240126B8F1010F07
:100FE0001BD908F1FF386E43F8E709F10109B2FB9C
:100FF000F5F2E8E79B070ED5B8F1000F0CBF3026DD
:101000002026A145E9D2013C31465046FFF7B8FF02
:10101000002CF6D1E0E72026F3E7B7FBF6F39D427C
:10102000E1D9DFF83C80B7FBF6F3504618F803101F
:1010300006FB1377FFF7A4FF3346AB42B6FBF5F68A
:10104000F1D2BBF1000F02D00CB1A14501D3BDE834
:10105000F88F20215046013CFFF792FFF4E700BFD4
:10106000293700002DE9F74F054617468846002925
:1010700000F0428118F8011B49B92B7B002B00F0CE
:101080003B81284603B0BDE8F04FFFF760BF25293C
:1010900040F0B780002698F800302D2B424608F12A
:1010A000010823D0302B24D02B2B25D000242A2B31
:1010B00002F1010123D13B681A1D1B683A601C44F0
:1010C0000A4613782E2B26D101324FF0000A104623
:1010D00010F8011BA1F1300CBCF1090F1DD80A2337
:1010E00003FB0A13A3F1300A0246F0E746F00106BB
:1010F000D1E746F00206CEE746F00406CBE711F84A
:10110000013CA3F130000928DBD80A2202FB043499
:10111000303C0A46CBE74FF0000A12F8011B01F001
:10112000FB0068289046F8D0782909D86F290CD898
:10113000632962D022D8252963D0582900F08880FD
:1011400098F80030002B95D197E770390829F7D827
:1011500001A353F821F000BFD31200004111000099
:101160004111000061120000411100003F12000017
:10117000411100004111000051120000642901D00A
:101180006929DDD13A68D2F80090111D89EAE97227
:101190003960A2EBE9724FF0010B092A35DCD34527
:1011A00038BFD3462CB1B9F1000F01DB720700D56F
:1011B000013CB30702D5BAF1000F03D0F00701D408
:1011C0004CBB0024B9F1000F2DDAC9F100092D2123
:1011D0002846FFF7D5FE06F00302022A04D1BAF131
:1011E000000F01D11CBB0024CDE9004653460A2262
:1011F00049462846FFF7DCFEA2E73B681A1D19782E
:101200003A602846FFF7BCFE9AE70A230BF1010B70
:10121000B2FBF3F2C1E7A345D4D220212846013C1A
:10122000FFF7AEFECCE77107D5D52B21D0E7A3455C
:10123000DAD230212846013CFFF7A2FED2E7396816
:10124000CDE900460A1D3A6053460A220968D0E7F4
:1012500039680A1D3A60CDE9004653461022F5E789
:101260003B681A1D3A6016F00106D3F8009028D1A9
:10127000B9F1000F03D0484601F045FE0646B442DE
:1012800000D904BB09F1FF3919F8011F00293FF407
:1012900057AF2846FFF774FEF6E728460136FFF7FA
:1012A0006FFE19F806100029F7D1A642BFF448AF27
:1012B000002C3FF445AF20212846013CFFF760FE9B
:1012C000F3E70026EDE720212846013CFFF758FE12
:1012D000D5E73B681A1D3A60302128461C68FFF7A5
:1012E0004FFE78212846FFF74BFE00220823CDE968
:1012F0000032214610227CE703B0BDE8F08F00BF2A
:101300002DE9F84FB0F806A04579D2F800B09DF865
:1013100028900AFB05F5043D88460BEB0301A94222
:1013200003F1040488BFA5EB030BB4FBFAF60746F0
:101330000AFB1644C2F800B04EB9AAEB04055D459D
:1013400028BF5D46BBF1000F04D1BDE8F88F3F68B0
:10135000013EF1E7043408EB06003C442A46B9F1AB
:10136000000F0DD02146ABEB050B01F081FDDA45F6
:101370002E443F6855464FF0000428BF5D46E1E724
:1013800001462046EFE7FFF796BDF8B546790146DE
:10139000721E0546002393422D6803D30024A64203
:1013A00002D8F8BD0133F6E70F682846FFF7BAFD0B
:1013B00001343946F3E72DE9F843068ACD1C074688
:1013C000FFF790FD043E35440446B5FBF6F5F0B159
:1013D0004FF48073EDB28380C680013D0760814683
:1013E0004FF00008A84512D23846FFF77BFD0646AD
:1013F00048B163790133637108F10108C9F800004D
:1014000007608146EEE72046FFF7BFFF34462046DF
:10141000BDE8F88301210430FFF72FBD10B501218D
:1014200004460430FFF735FD10F0FF0F04D12046CD
:10143000BDE81040FFF7A9BF10BD1FB50392002201
:10144000009203AAFFF75CFF05B05DF804FB1FB52F
:1014500003920122009203AAFFF752FF05B05DF844
:1014600004FB836800225A60C3E904229A60DA60B0
:101470001A6070471FB503788DF800308388ADF887
:10148000043083688DF80630C3688DF8073003692F
:1014900002934369054A0393054B684653F821308C
:1014A00052F82110984705B05DF804FB04060020AF
:1014B0000C060020024B4FF4807043F001031847E4
:1014C000403700001F2886BF054A00F01F004FF07C
:1014D000A042012303FA00F0C2F80805704700BFDC
:1014E000000300502DE9F047154690F80080394A76
:1014F00042F82850384A42F828304B7B06460C46C2
:10150000A3B30868DFF8D8904FF0A04100F5E0736E
:1015100040F20C6241F82320636803F5E073002772
:1015200041F82320FFF7CEFF6068FFF7CBFF236869
:1015300003F5E07340F20D6241F82320636803F580
:10154000E0734FF0010A41F82320FFF7B3FF63680F
:101550001F2B8ABF4A464FF0A04203F01F03D2F868
:10156000102522FA03F3DB070BD507BB002D1B4A1E
:10157000434608BF2A462146301DBDE8F04700F02B
:10158000C9B923681F2B86BF03F01F034A464FF0DB
:10159000A0420AFA03F3C2F80C35FFF78BFF0137BC
:1015A0002068FFF78FFFFFF785FF092FCFD1636812
:1015B0001F2B86BF0A4903F01F034FF0A0410122F1
:1015C00002FA03F3C1F80C35FFF774FF6068FFF708
:1015D00079FFCBE70C0600200406002075140000FC
:1015E000000300501FB503788DF800304368019365
:1015F00083688DF80830C368054A0393054B684635
:1016000053F8213052F82110984705B05DF804FBDB
:10161000140600201C0600201FB503788DF800304A
:101620004368019383688DF80830C368054A0393C3
:10163000054B684653F8213052F82110984705B001
:101640005DF804FB140600201C060020F0B5194BC1
:1016500090F800C0DFF86CE043F82C20164B1646DB
:101660000A6943F82C204B7F0EF80C300C460746D5
:101670000FCC89B06D460FC594E80F0085E80F00C8
:101680001EF80C30CDF810C04BB1002E0B4A694645
:1016900008BF3246381D00F075FE09B0F0BD002EBF
:1016A000074A694608BF324607F10C0000F042FCC9
:1016B000F3E700BF1C06002014060020E51500001B
:1016C0001916000024060020014B1B68184700BFB4
:1016D0002806002038B50B4B98420C4601D000205C
:1016E00038BD0020FFF7A2FB074B1D7915B9012279
:1016F0001C601A710020FFF79BFB002DEFD011201A
:10170000EEE700BF0020004028060020034B98426F
:1017100001BF034B00221A601A717047002000407D
:10172000280600200023435082B043580193019BB8
:1017300002B070470B7B032B2AD8DFE803F0222688
:101740001A028B685A0304D5D0F84C350A699A42BC
:1017500007D18B685B031BD4D0F84C354A699A4299
:1017600016D000230622C0F80035C0F80025184620
:101770007047D0F84C350A699A42F2D1D0F83C351E
:10178000ECE7D0F84C350A69E9E7D0F83C35FAE7E0
:1017900001207047F0B55A485A4CD0F8243187B030
:1017A0000546F3B14FF49271FFF7BCFFD0F8043156
:1017B000BBB9A368C0F808330223A360A368C0F8CC
:1017C0000433D0F860311BB1D0F800329F0503D448
:1017D0004B4B01221A625A61012384F82E3007B064
:1017E000F0BDD5F80431002B52D045484FF482713A
:1017F000FFF798FF236A5E060AD494F82E303BB9AF
:1018000040493F48FFF796FF80F0010084F82E0022
:10181000236A5D0721D43C4E0FCE01AD0FC533685E
:1018200037482B604FF4B071FFF77CFF34484FF41A
:10183000AE71FFF777FF94F8303013B194F82E3083
:101840005BB12F4B0022C3F80022A2602F4AC3F8DD
:1018500008232F4B0822C3F88021294AD2F8C43428
:10186000C2F8C43498073DD501238DF8003094F8B0
:1018700030300BB984F82F30236A5B0703D594F816
:101880002E30002BABD0D4E9003168469847A6E74C
:101890001B484FF4A471FFF745FF237B83B91A4F10
:1018A0000FCF01AE0FC63B68336094F83030002B89
:1018B000D3D1C5F80032A360144BC5F80833C8E78C
:1018C0004FF40073C5F8003240F20223A36003F125
:1018D000CE73C5F80833A368C5F804330123AB60A1
:1018E0002B627CE7590701D50223BEE7DA0701D551
:1018F0000323BAE794F82E30002BB6D00423B4E7C4
:1019000000300040300600203C06002002029C010E
:1019100000E100E02DE9F84F06793A4D4FF0340A26
:101920000AFB06FA05EB0A079B4697F82D3080461E
:101930000C469146002B60D133490068FFF7CAFE80
:1019400000285CD12168637B87F832301F298CBF67
:1019500001F01F030B46B860C7F804B087F82F00EA
:1019600087F8300003F5E07288BF284F45F80A90E9
:1019700098BF4FF0A04740F20C6347F822306268EE
:101980001F2A1F468CBF02F01F03134603F5E073A6
:101990008CBFDFF878C04FF0A04C4CF82370D8F81B
:1019A0000030C3F80815C3F80C25A268C3F8242535
:1019B000B9F1000F14D0227B43F307315201002903
:1019C000C3F30733D2B213DB114C671887F8002337
:1019D0000122490903F01F0302FA03F344F82130FE
:1019E000342303FB0655012385F82D30BDE8F88F1D
:1019F000084903F00F03CA54F2E70820F6E7112064
:101A0000F4E700BF300600209517000000030050E7
:101A100000E100E014ED00E0026803790621C2F85D
:101A20000015044A342101FB0323022283F82D20F0
:101A3000704700BF300600202DE9F843B14F90F801
:101A400004900468342606FB0976002386F82E30BD
:101A5000CB6803F06043B3F1005F0D46904603D0BE
:101A600010263046BDE8F883A74BC4F8083396F833
:101A70002F3023B1B368C4F804331126F1E712F014
:101A8000140F0CBF0123002386F82F308E46BEE8CA
:101A90000F0006F10C0CACE80F00DEF80030CCF8BB
:101AA0000030C8F3001386F83030C6F820806B7819
:101AB000C4F8883520464FF48271FFF733FE4FF4A7
:101AC0009271FFF72FFE4FF4B071FFF72BFE4FF42A
:101AD000A471FFF727FE18F0010318BF0123C4F813
:101AE000503518F0020318BF0123C4F840352B7895
:101AF000032B00F2B480DFE803F0839F68022B69B8
:101B000003F06043B3F1005FAAD14FF48073C4F8CF
:101B10000032EA686B68C4F844254FF4A871C4F831
:101B20004835FFF7FFFD01232362A360D4F850314D
:101B3000002BFBD04FF4A8712046FFF7F3FDAB68F4
:101B40002A69C4F84425C4F84835342303FB0973D3
:101B50004FF480229A600823002618F0080F04D161
:101B60002A78032A1CBF0122E250342303FB09F325
:101B7000FA18FB58002B75D10125D4F84821D4F868
:101B80000431002B40F08880003A18BF0122D4F8BD
:101B90002431002B00F087804FF492712046FFF72C
:101BA000C1FDD4F86011D4F8003209B1980504D40D
:101BB000256265610029E0D00022DB0573D54FF472
:101BC000A4712046FFF7AEFDD7E76B68EA68C4F85A
:101BD0004425C4F848352B6903F06042B2F1005F38
:101BE0007FF43EAFAA68C4F834354FF48453C4F888
:101BF0003825C4F80032342303FB0973022212E0B3
:101C00006B68EA68C4F8442518F0200FC4F848351A
:101C10004FF034030BD04FF48072C4F8002203FB62
:101C200009734FF480229A600123236293E74FF4F3
:101C30000072C4F80022DFE76B68EA68C4F8342554
:101C4000C4F838354FF48053C4F80032342303FB12
:101C5000097302229A600123236200237CE7082390
:101C600007267AE718F0040F1CBF0023936018F0D2
:101C7000400F06D1342303FB09739A6842F0020235
:101C80009A60342303FB0977BB6843F40073BB609D
:101C9000BB68C4F80433E4E64FF482712046FFF7D2
:101CA00041FD012273E7002A3FF467AF3421D4F8E5
:101CB000C434C4F8C43401FB0972002082F82F0038
:101CC00093B113F0010F14BF4FF40246032648F2FC
:101CD000012213F0020F18BF164613F0040F48F24A
:101CE000022318BF1E46BCE618F0400F7FF4B9AEC1
:101CF00009FB01712046FFF71DFD002808BF0326E0
:101D0000AFE600BF3006002002029C0110B586B08D
:101D10000024CDE902349DF820308DF80510A3424F
:101D2000CDE9042401A914BF202222468DF80440E5
:101D3000FFF782FE06B010BD10B586B001240293F5
:101D40000023CDE903328DF805101A4601A98DF85C
:101D500004400593FFF770FE06B010BD002343500A
:101D600082B043580193019B02B070470A4610B5F8
:101D70004FF48E71FFF7F2FF136A9168C95C136A22
:101D800001331362C0F81C1510BD8B690A4610B5EB
:101D90004FF4847123B9FFF7E1FFD0F8183510BD77
:101DA000FFF7DCFF536AD168D0F81805C854536AAE
:101DB00001335362F3E700001FB501238DF80030B3
:101DC000044BCDE90110D3E900126846904705B0F5
:101DD0005DF804FB6406002030B54C48D0F80433AD
:101DE00013F4007F85B005464DD0D0F82431002B88
:101DF00049D04FF49271FFF7B1FF4FF40173C0F86F
:101E00000833434B93F829200AB9012242603F4925
:101E100002228DF80020D1F88024C1F8802403929A
:101E20009A690292DA6801920022C3E906226846A2
:101E3000D3E9001290473548D0F81C315BB13449E2
:101E40004A690B6A9A420A464AD991F82830002B0F
:101E500046D1FFF78BFF2D48D0F844318BB14FF4BA
:101E6000A271FFF77BFF2A4B93F829200AB10122C8
:101E700002609A692AB10022586AD9689A61FFF70C
:101E80009BFF05B030BDD5F804335B07D3D5D5F83B
:101E90000831002BCFD01E4C1C482146FFF775FFA0
:101EA000636AA2699A422346C5D1E269E1684AB1F0
:101EB0002369E3600023606AA261E3616362FFF764
:101EC0007BFFB8E794F829200AB901226A600F4A1B
:101ED0004FF40170C2F808030022586A9A61EEE7D5
:101EE0000A484FF48E71FFF739FF5369002BB2D0C7
:101EF00051690291002391688DF80030019153617E
:101F00006846D2E900139847A5E700BF00200040CB
:101F1000640600201F2886BF00F01F00044B4FF00E
:101F2000A04300F5E070022243F82020704700BF74
:101F3000000300502DE9F843614B057991462C22AE
:101F400002FB0532064692F82A200C469846002AE3
:101F500040F0B1805B490068FFF7BCFB07460028F2
:101F600040F0AB8021684A1C10D01F2987BF564A19
:101F700001F01F030B464FF0A0420120984003F5EB
:101F8000E073C2F80805032042F823006068431C90
:101F90000DD01F288BBF00F01F0303464A4A4FF0A5
:101FA000A04203F5E0734FF0000C42F823C0336801
:101FB000A269C3F8242594F814C0627DBCF1010F16
:101FC0004CEA0202C3F86C25C3F81405C3F80C15DB
:101FD0002BD1A168481C0DD01F298BBF01F01F0217
:101FE0000A4639484FF0A04002F5E0724FF0000C6D
:101FF00040F822C0E068421C13D01F2887BF324A35
:1020000000F01F0C84464FF0A0424FF0010E0EFA74
:102010000CFE0CF5E07CC2F808E54FF0030E42F828
:102020002CE0C3F80805C3F810152C236B4308EB0C
:102030000302C2F80490226948F80320B9F1000FA6
:1020400021D03068247F4FF48E71FFF787FE4FF464
:10205000A2713068FFF782FE32681C4BC2F804336D
:10206000110B42F307326301002ADBB21EDB184872
:10207000841884F800330123520901F01F0103FA88
:1020800001F140F8221033680422C3F800252C2304
:1020900003FB05830022C3E9062283F829205A6145
:1020A000012283F82A203846BDE8F883094A01F066
:1020B0000F015354E7E70827F5E71127F3E700BFBF
:1020C00064060020D91D00000003005080000200BB
:1020D00000E100E014ED00E02DE9F041036804792F
:1020E000284D0022C3F800252C2202FB0452014691
:1020F0005268A2B1244AC3F808231A0B43F30733EA
:10210000002B0CDB02F01F005B0901228240203310
:102110001E4840F82320BFF34F8FBFF36F8F0B682B
:10212000D3F80C05D3F81485D3F80865D3F81075E7
:102130004FF0FF329042C3F81425C3F80C25C3F8C2
:102140000825C3F8102501D0FFF7E4FEB8F1FF3FE2
:1021500002D04046FFF7DEFE7A1C02D03846FFF779
:10216000D9FE731C02D03046FFF7D4FE0868FFF793
:10217000CDFA2C2303FB0454002384F82A30636037
:10218000BDE8F081640600208402020000E100E066
:102190002DE9F047204F90F804904FF02C0808FBF1
:1021A000097405466669002E34D162610068A16039
:1021B00026624FF48E7184F82860FFF7CFFD2868FF
:1021C000012383602146FFF7D1FD6368A0468BB9E8
:1021D0002868D4F814A0236A9A4511D82A68D2F83E
:1021E0001C31002BFBD00123D3602C2303FB09738C
:1021F00000225A613046BDE8F08794F828303BB998
:10220000D0F81C31002BF8D04146FFF7AFFDE2E7D4
:102210000F26EAE71126EDE764060020002343506D
:1022200082B043580193019B02B070471FB5012350
:102230008DF80030044BCDE90110D3E90012684657
:10224000904705B05DF804FB900600201F2886BF6C
:1022500000F01F00044B4FF0A04300F5E070022295
:1022600043F82020704700BF000300507FB5434A69
:10227000D2F82461002E60D010464FF49271FFF71F
:10228000CDFF02238DF80030D2F88034C2F88034BC
:102290000393D2F83C350293394BDA68019200225D
:1022A000C3E906226846D3E9001290473348D0F8C4
:1022B000443173B14FF4A271FFF7B0FF304B9A690C
:1022C0003AB10022C3E90622D968D0F83C05FFF7ED
:1022D000ADFF2A48D0F82031ABB14FF49071FFF731
:1022E0009DFF0123C360264B5A6962B1D0F84C159B
:1022F0000291002299688DF8002001915A61684688
:10230000D3E9001290471D48D0F858319BB14FF4E3
:10231000AC71FFF783FF1A4B5A6962B1D0F84C15C4
:102320000291002299688DF8002001915A61684657
:10233000D3E90012904704B070BDD2F81031002BE1
:10234000B4D04FF488711046FFF768FF0C4BD2F8F9
:102350003C0599698842A9D1DC69D96864B1D2F891
:10236000005225F02005C2F800521A699C61DA601B
:10237000DE61FFF75BFF99E79C61FAE70020004010
:10238000900600202DE9F843674B067991462422F8
:1023900002FB0632044692F820200D469846002A99
:1023A00040F0BE8061490068FFF794F907460028B5
:1023B00040F0B8802868421C10D01F2887BF5C4AB4
:1023C00000F01F0303464FF0A0420121994003F59E
:1023D000E073C2F80815032142F8231069684B1C0A
:1023E0000DD01F298BBF01F01F030B46504A4FF041
:1023F000A04203F5E0734FF0000C42F823C02368BD
:10240000AA69C3F8242595F814C06A7DBCF1010FB0
:102410004CEA0202C3F86C25C3F80C05C3F8141586
:102420002BD1A968481C0DD01F298BBF01F01F02BA
:102430000A463F484FF0A04002F5E0724FF0000C12
:1024400040F822C0E868421C13D01F2887BF384AD2
:1024500000F01F0C84464FF0A0424FF0010E0EFA20
:102460000CFE0CF5E07CC2F808E54FF0030E42F8D4
:102470002CE0C3F80805C3F810152423734308EBB8
:102480000302C2F804902A6948F80320B9F1000F4A
:1024900030D020682A7F4FF48871FFF7BFFE206894
:1024A0004FF49071FFF7BAFE20684FF49271FFF776
:1024B000B5FE20684FF4A271FFF7B0FE4FF4AC7187
:1024C0002068FFF7ABFE23681A49C3F80413190B01
:1024D00043F307335201002BD2B21CDB1648C51858
:1024E00085F8002301225B0901F01F0102FA01F1C6
:1024F00040F8231023680822C3F80025242303FB97
:1025000006830022C3E906225A61012283F82020B3
:102510003846BDE8F883094B01F00F015A54E9E74A
:102520000827F5E71127F3E7900600206D22000049
:10253000000300501003420000E100E014ED00E051
:102540002DE9F0413D4E05790468242303FB056322
:1025500002465B68ABB13A4BC4F8083344F3073327
:10256000002B4FEA14310CDB01F01F005B09012145
:1025700081402033334840F82310BFF34F8FBFF31F
:102580006F8FD4F8003223F02003C4F800322423E4
:1025900003FB05639B6933B14FF4A2712046FFF73B
:1025A0003DFE012363604FF4AC712046FFF736FE19
:1025B0000123E360242303FB0563D4F858110029A9
:1025C000FBD0996919B1D4F844110029F5D0002342
:1025D000C4F800351368D3F80C05D3F81485D3F884
:1025E0000815D3F810754FF0FF329042C3F80C2550
:1025F000C3F81425C3F80825C3F8102501D0FFF748
:1026000025FEB8F1FF3F02D04046FFF71FFE7A1CBF
:1026100002D03846FFF71AFE4B1C02D00846FFF7DF
:1026200015FE2046FFF772F8242303FB05650023FF
:1026300085F820306B60BDE8F08100BF9006002077
:102640001003420000E100E001F06043B3F1005FDD
:102650002DE9F041064638D11E4B0779242505FBAC
:10266000073598466C69002C31D16A610068A96011
:102670004FF49071FFF7D2FD4FF4AC713068FFF763
:10268000CDFD33686A69A968C3F84415C3F84825C5
:1026900001229A606A68AAB9D3F82021D3F8584178
:1026A0001AB9002CF8D00F2407E0002CFBD101222E
:1026B000DA60D3F85821002AFBD0242303FB0787D4
:1026C00000237B612046BDE8F0811024FAE7112445
:1026D000F8E700BF90060020F7B500210846FEF796
:1026E00015F808B1FEF74AFBFDF756FF0320FEF789
:1026F00026FB1C4C1C4E00F047FA1C4BE41AE40865
:10270000240444F0030500F0BAFA10B3284618492F
:10271000184EFEF789F928461749184DFEF784F937
:102720002F1D17493A46881E00F0CAFAB0B1154A63
:10273000B5F904101368581C1060CDE9001344F07B
:102740000500B5F90230B5F900200F49FEF770F920
:10275000E7E731462846FEF767F9D4E7304600F050
:10276000E7F8DEE7BC3500005A3700009C35000072
:102770007C370000E737000099370000B4060020DE
:10278000B6060020BC060020B83700000369C16807
:102790008B429DBF8268D21802F1FF3203F1FF33F2
:1027A00094BF501A581A70472DE9F843D0E90294A3
:1027B0000546A9EB04084068904520440F461444A0
:1027C00004D900F055FBEC60BDE8F8834246A4EB69
:1027D000090400F04DFB6868224607EB0801F0E7AA
:1027E0002DE9F843C5680646894617464FF00008AC
:1027F0003469B3687068A54228BFE418013C621BC5
:102800005C1BBC4228BF3C46944228BF1446494644
:102810002844224600F02CFBB3682544AB4208BF95
:1028200000253F1BA044A144F560E1D14046BDE82E
:10283000F883000010B5114C114AA2610223C4E9CB
:102840000433104BE361A2644FF400730E4A0F4946
:102850002362E26400231022E01DA3626362E3624C
:10286000A3656365E365226500F02BFB08492046FC
:1028700000F027FB2023A37110BD00BFC00600207D
:102880000438000048070020380700200D380000F9
:1028900011380000F8B5184C182300FB033503FB72
:1028A00000402544C46A012C0F4616460FD0022C66
:1028B0001AD0F4B92846FFF769FF864205D8324698
:1028C00039462846FFF770FF34462046F8BD2846B3
:1028D000FFF75CFF8642344628BF0446224639464D
:1028E0002846FFF761FFF0E72846BDE8F840FFF70C
:1028F00077BF0024E9E700BFC006002070B50B4B8E
:102900001B7804460D4616460BB9FFF793FF0020CF
:10291000FEF78CFA324629462046FFF7BBFF0446F5
:102920000020FEF785FA204670BD00BFC0060020DB
:102930000FB410B5A2B024AB802153F8042B01933F
:1029400002A800F087FA802804460ADD802202A946
:102950000020FFF7D3FF204622B0BDE8104004B0AE
:1029600070470028F7DD0246F1E70000034B1868C6
:10297000A0F1080358425841704700BF30010010D1
:10298000064B1B68082B06D1054B1B68032B02D88E
:10299000044AD05C70470020704700BF300100102F
:1029A000340100101838000008B5FFF7DFFF40B110
:1029B0004FF080430022C3F80C21C3F81021C3F864
:1029C0003825FFF7D3FF002846D04FF080525E4BEA
:1029D000D2F80414C3F82015D2F80814C3F824154B
:1029E000D2F80C14C3F82815D2F81014C3F82C151B
:1029F000D2F81414C3F83015D2F81814C3F83415EB
:102A0000D2F81C14C3F84015D2F82014C3F84415AA
:102A1000D2F82414C3F84815D2F82814C3F84C157A
:102A2000D2F82C14C3F85015D2F83014C3F854154A
:102A3000D2F83414C3F86015D2F83814C3F864150A
:102A4000D2F83C14C3F86815D2F84014C3F86C15DA
:102A5000D2F84424C3F87025FFF792FF10B13B4B26
:102A60003B4A1A60FFF78CFF18B13A4BFB22C3F8C0
:102A70001825FFF785FF48B13749384B0A681B68AE
:102A800022F00F0203F00F0313430B60FFF778FFF0
:102A900018B1334B4FF400721A60FFF767FF48B16B
:102AA0004FF08043D3F80024D20744BF6FF00102F7
:102AB000C3F800242B4AD2F8883043F47003C2F8DC
:102AC0008830BFF34F8FBFF36F8F4FF01023D3F8D1
:102AD0000022002A03DBD3F80432002B2FDA224B2A
:102AE0000122C3F80425D3F80024002AFBD04FF0BC
:102AF00010221221C2F80012D3F80024002AFBD0C1
:102B00004FF010231222C3F80422174B1A46D3F8B1
:102B100000140029FBD00021C3F80415D2F80034BA
:102B2000002BFBD0BFF34F8F0E49104BCA6802F445
:102B3000E0621343CB60BFF34F8F00BFFDE70C4B48
:102B40000C4A1A6008BD00BF00C000408C5600400F
:102B50004881030000F00040E40E004058020010DD
:102B60004096024000ED00E000E001400400FA055C
:102B70001C0000200090D003037813B9014B012200
:102B80001A707047480900201FB51F210322CDE9A4
:102B900000124FF0CD620292022200238DF80C2029
:102BA0000848094AADF80D3069468DF80F30FEF738
:102BB00099FC08B1FEF7E2F80448FEF72DFF05B0D6
:102BC0005DF804FB1C380000792B00002038000061
:102BD0001FB50B4C8DF80C0000238DF80D102370E1
:102BE00000930848022303AA6821FFF78FF823788F
:102BF000002BFCD0B0FA80F0400904B010BD00BF3B
:102C000048090020203800007FB5124C8DF80F00D5
:102C10000023237001230D4616460F4800930DF143
:102C20000F026821FFF772F82378002BFCD070B9EF
:102C30002070334608482A466821FFF77DF823783C
:102C4000002BFCD0B0FA80F0400904B070BD002029
:102C5000FBE700BF480900202038000007B501222B
:102C60000DF107017520FFF7CFFF28B19DF8070090
:102C7000A0F168035842584103B05DF804FB10B559
:102C8000FFF7ECFF0446FFF7E9FFC0B100216B201E
:102C9000FFF79EFF07211920FFF79AFF06211A2050
:102CA000FFF796FF00213820FFF792FF18211B2025
:102CB000FFF78EFF00211C20FFF78AFF204610BD82
:102CC000F7B507460E461546694606223B20FFF734
:102CD0009BFF0446C8B1062269463B20FFF794FFDC
:102CE0009DF800209DF8013043EA02233B809DF8C7
:102CF00002209DF8033043EA022333809DF804202C
:102D00009DF8053043EA02232B80204603B0F0BD36
:102D10007F2805D8034B185C034B5B5C1840704759
:102D20000020704738380000B8380000A0F1610377
:102D3000192B98BF20387047A0F14103192B98BF79
:102D4000203070477F2805D8034B185C034B5B5C31
:102D5000184070470020704738380000B83800002D
:102D6000A0F16103192B98BF20387047A0F14103EF
:102D7000192B98BF203070477F299ABF017001201E
:102D80006FF02E0070475AB10A787F2A0AD800B136
:102D90000260002119605960501A18BF0120704765
:102DA000002070476FF02E00704738B50446084683
:102DB000A26842B1236861685D1C8D4208BF002093
:102DC0008B4208D2D054E3682BB1216862689142EB
:102DD00001D22146984723680133236038BD70B57E
:102DE0004C1E09D41646C5B229463046FFF7DDFF12
:102DF000013CB4F1FF3FF7D170BD10F0100F08D1C6
:102E000008B510F4007F14BF30202020FFF7E7FF43
:102E100008BD704708B5034B5B689B681B68984703
:102E200008BD00BF2000002008B50921FFF7F2FF10
:102E300008BD037853B159B10144034613F8012F7B
:102E400012B18B42FAD10B46181A70470346FBE7C2
:102E50000346F9E710B584B00C46114602900022F3
:102E6000039201941A46684600F07EF804B010BD43
:102E7000844640EA010313F0030F18D18446202A48
:102E80000BD32DE9F007B1E8F807A0E8F807A2F1A5
:102E90002002202AF7D2BDE8F007042A07D351F810
:102EA000043B40F8043BA2F10402042AF7D2002AB2
:102EB00005D011F8013B00F8013B013AF9D1604619
:102EC0007047024610F0030F16D111F0030F13D113
:102ED0002DE9F0004FF001374FF0803351F8044BEB
:102EE000A4EB070525EA04051D4002D142F8044B76
:102EF000F4E7A1F10401F0BC11F8013B02F8013B39
:102F0000002BF9D1704700F1010110F0030F11D02F
:102F100010F8012B002A23D010F0030F0AD010F86C
:102F2000012B002A1CD010F0030F03D010F8012B46
:102F3000002A15D02DE970004FF001324FF0803398
:102F400050F8044BA4EB020525EA04051D4000D10E
:102F5000F6E7A0F1040070BC10F8012B002AFBD1A9
:102F6000A0EB0100704700002DE9F04F89B0074643
:102F70000392002303600C4614F8011B002900F0A3
:102F8000FA82DFF814B5E9E2002507E05E2868D18F
:102F900045F4805501E045F040051C46234613F8F2
:102FA000010B3028F2D81F2837D9A0F12002102AAF
:102FB00033D801A151F822F0972F00001B300000F8
:102FC0001B300000FD2F00001B3000001B300000F4
:102FD0001B300000033000001B3000001B300000DD
:102FE0001B300000093000001B3000000F300000D3
:102FF0001B3000001B3000001530000045F080053C
:10300000CBE745F40045C8E745F02005C5E745F0A6
:103010001005C2E745F40075BFE72A2821D1039ABD
:10302000111D0391D2F800A0BAF1000FBCBFCAF184
:10303000000A45F010051878A31C2AEAEA7A2E281F
:1030400026D00021742847D07A2845D06C2800F07B
:10305000A8804C2800F0AB80682800F0B8801C469F
:103060003DE0A0F13002D2B2092A88BF4FF0000A39
:10307000E3D84FF0000A0AEB8A0A303800EB4A0A1C
:1030800013F8010BA0F13002D2B2092AF3D9D4E728
:1030900018782A280AD1039A111D039111685878CB
:1030A00002330029CEDB45F48075CBE70133A0F174
:1030B0003002D2B2092A88BF0021F4D8002101EBE6
:1030C0008101303800EB410113F8010BA0F130020F
:1030D000D2B2092AF3D9E4E71C4614F8010B002800
:1030E00000F05582A0F12503DBB2532B62D8A0F18A
:1030F0002503532B5ED8DFE813F076005D005D00FA
:103100005D005D005D005D005D005D005D005D00D7
:103110005D005D005D005D005D005D005D005D00C7
:103120005D005D005D005D005D005D005D005D00B7
:103130005D005D005D005D005D005D005D005D00A7
:103140005D005D005D005D005D005D005D005D0097
:103150005D005D005D005D005D005D005D005D0087
:10316000EB005D005D005D005D005D005D005D00E9
:103170005D005D005D007B0020015D005D005D0085
:103180005D0020015D005D005D005D0095000E01A9
:10319000D1005D005D00A6005D0019015D005D00CD
:1031A000ED001C4614F8010B45F0010597E745F0CA
:1031B00001051C46B44B1E68002E00F0CC8103AB09
:1031C0000193009153462A463946B047C3E1187827
:1031D000682803D05C1C45F0040580E745F008052D
:1031E0009C1C58787BE725213846FFF7DEFDB2E1CD
:1031F000039B1A1D03921E780AF1FF3A3A46514684
:103200002846FFF7FAFD31463846FFF7CEFDA946BE
:1032100019F0100F00F09F813A4651462020FFF729
:10322000DEFD98E115F0080F06D03A68039B191DE2
:1032300003911B681A708EE1039B1A1D03921B6891
:103240003A681A6087E1039B1A1D0392D3F8008045
:103250008E4BB8F1000F08BF9846464625F400791A
:1032600015F4807F15D04046FFF7E3FD0546AAEB35
:10327000050A3A4651464846FFF7BFFD002DC7D024
:10328000454416F8011B3846FFF78FFDB542F8D1CB
:10329000BEE74046FFF737FE0546E8E7039B1A1DE9
:1032A00003921B6815F0800F0CBF0026232645F4FF
:1032B000807508211A46002B00F0298105AB4FF0DC
:1032C000000805F4005CA64660468C460146D1E045
:1032D00045F4005515F0800F1BD043F2780643F2F9
:1032E0005803782818BF1E4615F4807F01D025F4B6
:1032F000007515F4804F32D0039B1A1D03921B6892
:1033000015F0040F1FD01BB2002B20DA5B422D26D4
:103310002DE00026E8E715F0800F0CBF00263026D0
:1033200015F4807FE5D025F40075E2E715F4807F81
:1033300007D025F400750026DBE745F4804500261C
:10334000D7E70026D5E715F0080FDDD0DBB215F082
:10335000200F60D115F0400F18BF202607E0039B17
:103360001A1D03921B6815F0040F4FD09BB215F481
:10337000807F14BF25F4007501215838202800F201
:10338000AE8001A252F820F0B5320000DF34000018
:10339000DF340000DF340000DF340000DF340000E1
:1033A000DF340000DF340000DF340000DF340000D1
:1033B000DF340000DF34000043340000DF3400005D
:1033C000DF340000DF340000DF340000433400004D
:1033D000DF340000DF340000DF340000DF340000A1
:1033E000DF3400001B340000B5320000DF34000081
:1033F000DF340000DF340000DF340000433400001D
:10340000DF340000DF340000B532000015F0080F93
:10341000ADD0DBB2ABE72B26A9E71A464FF0000888
:10342000002B5ED005A84FF0000803F007033033EF
:1034300000F8013B08F10108D2081346002AF4D134
:103440004FE018464FF00008002B4AD04FF000081C
:1034500005F4004E4FF02C0973468E4619462FE0B6
:1034600002F00F000A4C205C03F8010B08F1010880
:10347000120906D00029F3D002F00F00054C205CA1
:10348000F2E7744661462CE04C0900208C3A0000BB
:103490006C3A00007C3A0000CDCCCCCC08AB03EBFE
:1034A000080CABFB0032D20802EB8203A0EB430313
:1034B00030330CF80C3C08F1010809280DD91046EE
:1034C0000029EBD008F00303032BE7D108AB4344FA
:1034D00003F80C9C08F10108E0E7714601E04FF0A9
:1034E0000008A1EB080121EAE179AAEB090AAAEB9D
:1034F000080AFF2E0ED9AAF1020AC6F307213846A0
:10350000FFF753FCF1B23846FFF74FFC04E04FF0F1
:103510000008E6E7002E3DD13A4651462846FFF71F
:103520006CFC3A4649463020FFF759FCB8F1000FD1
:103530000EDD0DF1140908F1FF38C84498F80010A9
:1035400046463846FFF731FCC14508F1FF38F5D152
:1035500015F0100F09D114F8011B61B125293FF4B2
:1035600013AD3846FFF721FCF5E73A4651462020D7
:10357000FFF735FCEFE7BB682BB13A6879688A4200
:103580003CBF00219954386809B0BDE8F08F4FF076
:0C359000FF30F9E70AF1FF3AB4E700BF92
:10359C0046370000000000004A3700000000000021
:1035AC004F370000000000005437000000000000FE
:0835BC00363600000000030395
:1035C400083600000000000014360000140000203B
:1035D40078000020400100204801002080000020E5
:0435E40018000000CB
:1035E800FFFFFFFFFFFFFFFFFFFFFFFFFFFFFFFFE3
:1035F80000000000000000000000D60106010000E5
:103608000105000065050000A104000075617274E1
:103618005F6C6F675F6261636B656E6400426163D4
:103628006B656E647320666C7573686564006170A1
:1036380070000000680500207F000000E8050020F9
:103648001B5B306D002573001B5B313B33316D0014
:1036580025734C6F67732064726F707065642028DF
:1036680025642925730D0A003C25733E2025733AED
:103678002000202530327800202020007C0025639F
:10368800001B5B313B33306D001B5B313B33326DCC
:10369800001B5B313B33336D001B5B313B33346DB7
:1036A800001B5B313B33356D001B5B313B33366DA3
:1036B800001B5B313B33376D007761726E696E6753
:1036C80000696E666F0064656275670048360000C1
:1036D8008936000050360000913600009936000007
:1036E800A1360000A9360000B1360000B936000046
:1036F8000000000016370000C1360000C93600007F
:10370800CE3600000D0E0F10466174616C20657294
:10371800726F720053797374656D20726573657486
:103728000030313233343536373839414243444535
:1037380046000000000000000338FDD870475052D2
:1037480053005457494D0055415254005541525465
:1037580045004D50555F3630353020696E697469C3
:10376800616C697A6174696F6E206661696C656401
:10377800212121004D50553630353020496E69746D
:10378800205375636365737366756C6C79212121A9
:103798000052656164696E672056616C75657320B7
:1037A80066726F6D204143432026204759524F00CF
:1037B8004143432056616C7565733A202078203D5B
:1037C800202564202079203D20256420207A203D72
:1037D80020256420636F756E74203D25640A0052AD
:1037E800656164696E67204143432076616C756545
:1037F80073204661696C6564212121005465726DEE
:10380800696E616C00525454005345474745520055
:10381800010000000000000000300040000000002F
:103828000100000043000000504F534958000000B9
:103838002020202020202020206828282828202018
:103848002020202020202020202020202020202070
:103858004810101010101010101010101010101028
:1038680084848484848484848484101010101010C8
:103878001081818181818101010101010101010121
:1038880001010101010101010101011010101010D5
:1038980010828282828282020202020202020202F2
:1038A800020202020202020202020210101010209A
:1038B8000007032004170201085710408000000089
:1038C8002C38000030390000443A000053756E006F
:1038D8004D6F6E0054756500576564005468750037
:1038E8004672690053617400000000004A616E006E
:1038F800466562004D617200417072004D61790049
:103908004A756E004A756C00417567005365700012
:103918004F6374004E6F760044656300000000003A
:10392800414D00504D000000683A0000643A000024
:10393800643A0000643A0000643A0000643A000007
:10394800643A0000643A0000643A0000643A0000F7
:10395800FFFFFFFFFFFFFFFFFFFFFFFFFFFF00006D
:10396800A4390000D4380000E0390000F438000021
:103978002839000088390000383A000094390000DE
:10398800256D2F25642F257900000000256120254D
:1039980062202565202554202559000053756E6442
:1039A8006179004D6F6E6461790054756573646167
:1039B80079005765646E657364617900546875723F
:1039C8007364617900467269646179005361747542
:1039D80072646179000000004A616E756172790055
:1039E8004665627275617279004D61726368004163
:1039F8007072696C004D6179004A756E65004A7590
:103A08006C79004175677573740053657074656DE2
:103A1800626572004F63746F626572004E6F7665FF
:103A28006D62657200446563656D626572000000D1
:103A380025483A254D3A255300000000112D000075
:103A48002D2D0000392D0000452D0000612D0000AE
:103A58006D2D0000792D0000872D0000000000006A
:103A68002E00000030313233343536373839616250
:103A7800636465663031323334353637383941421C
:0B3A880043444546286E756C6C290015
:103A94000000000000200040000000000020004062
:103AA4000000000000000000FF0000000090D003B0
:103AB400C8380000C8380000C8380000C838000002
:043AC400C8380000FE
:040000030000037581
:00000001FF
