:1000000000000420750300005D0300005F03000092
:1000100061030000630300006503000000000000AE
:100020000000000000000000000000006703000066
:1000300069030000000000006B0300006D03000076
:100040006F0300006F0300000D160000D9160000BA
:100050006F0300006F0300006F0300006F030000D8
:100060006F0300006F0300006F0300006F030000C8
:100070006F0300006F0300006F0300006F030000B8
:100080006F0300006F0300006F0300006F030000A8
:100090006F0300006F0300006F0300006F03000098
:1000A0006F0300006F0300006F0300006F03000088
:1000B0006F0300006F03000000000000000000005C
:1000C0006F0300006F0300006F0300006F03000068
:1000D0006F0300006F0300006F0300006F03000058
:1000E0006F0300006F0300006F03000000000000BA
:1000F000000000006F030000000000006F0300001C
:1001000000000000000000000000000000000000EF
:1001100000000000000000000000000000000000DF
:1001200000000000000000000000000000000000CF
:1001300000000000000000000000000000000000BF
:1001400000000000000000000000000000000000AF
:10015000000000000000000000000000000000009F
:10016000000000000000000000000000000000008F
:10017000000000000000000000000000000000007F
:10018000000000000000000000000000000000006F
:10019000000000000000000000000000000000005F
:1001A000000000000000000000000000000000004F
:1001B000000000000000000000000000000000003F
:1001C000000000000000000000000000000000002F
:1001D000000000000000000000000000000000001F
:1001E000000000000000000000000000000000000F
:1001F00000000000000000000000000000000000FF
:10020000354936480A1A02D0072291438D463449AF
:1002100034480A1A06D00722914381F30988022242
:1002200082F3148830483149314A00F044F83148AB
:100230003149324A00F03FF831483249324A00F041
:100240003AF832483249334A00F035F832483349F7
:10025000334A00F030F833483349344A00F02BF881
:1002600033483449344A00F026F8344834490022EF
:1002700000F02CF833483449002200F027F83348C6
:100280003349091A082902DB002202604160314A21
:1002900090471F481F49884205D00268043003B4C4
:1002A000904703BCF7E700208646EC46002000217B
:1002B000294A9047FEE7884207D0521A05D00378B2
:1002C00001300B700131013AF9D17047884202D0F8
:1002D00002700130FAE770470000042000E00320BC
:1002E0000000042000000420FC2E0000000000207C
:1002F00034000020D0030000D0030000E42A0000F6
:10030000FC2E00000000002000000020302B000028
:10031000302B0000302B0000302B0000302B000071
:10032000302B0000302B0000302B0000FA2E000094
:10033000302F000034000020340000203400002062
:10034000B4060020B4060020B4060020B406002045
:10035000B42600209D0300001D260000FEE7FEE7F6
:10036000FEE7FEE7FEE7FEE7FEE7FEE7FEE7FEE765
:1003700000F002B8FFF7FCBF0F484FF007018843B9
:1003800085460E4880470E48016841F470010160BF
:10039000BFF34F8FBFF36F8FFFF732BF09480A4992
:1003A0000A4A884207D0521A05D0037801300B70F0
:1003B0000131013AF9D1704700000420C126000044
:1003C00088ED00E0302B000000000020000000203D
:1003D000F0B595B01D46164608460C4600F0BCFF29
:1003E0001A9B0D93CDE9086500252B46082205A927
:1003F00020460A958DF82C500C9500F0CAFF079BFB
:100400000293069B03939DF814308DF8115003F06E
:100410000302012A1DD1BDF81420059DC3F3C203B8
:10042000C2F383168DF81030B20008230EA92046BF
:1004300000F0AFFFC5F3952508AB0093324602AB41
:100440000EA9284600F084FB204600F089FF15B075
:10045000F0BD022AF8D1BDF81650C3F3C203C5F3AC
:1004600089158DF810300827082D2E4628BF08263C
:100470003B4632460EA9204600F08BFFAD1B08AB71
:1004800002AA31460EA8374400F0C6FB002DEBD17E
:10049000DAE7704707B5044B0093044A4023FFF79F
:1004A00097FF03B05DF804FB010500003500002054
:1004B00030B5104D0FCD89B06C460FC495E80F00D4
:1004C00084E80F004FF0FF330622CDE90023CDE989
:1004D000023309484FF0EB7300226946069301F09E
:1004E00057F808B100F0F4FB044B00221A7009B071
:1004F00030BD00BF302B0000000000203400002081
:1005000038B50D4B0D4D002018700D4804782D5D49
:10051000D2B21C4665B1043002F038F808B100F0E0
:10052000D7FB084B1A7812B12378002BFBD038BDCB
:100530000C3001F0CFFDF1E775000020240600200B
:10054000000000203400002008B50848084A03785D
:10055000D35C33B1043001F095FFBDE80840FFF7EC
:10056000A7BF0C3001F05AFDF7E700BF00000020E4
:1005700024060020FFF79CBF08B5FFF7FBFF0448E7
:10058000042100F04FFA034B01225A7108BD00BF4D
:100590000C2B000014000020037813F0040216D086
:1005A00003F00303012B03D0022B09D00120704775
:1005B0000A6800880232C0F3831002440A60F5E73B
:1005C0000B684288023303EB92130B60EEE7104690
:1005D000704700002DE9F04F044685B0861C0020CE
:1005E0000F46154600F0CCFB3F4A516839609368CE
:1005F00003F580735B1A924602F21C4702F5836989
:1006000002F21448B34219D30020002D68D004F040
:100610000F039B0143F0050363F30F00DAF8043086
:10062000DAB203321E444AF822000020CAF80460FD
:1006300000F0A8FB012005B0BDE8F08F012138468D
:1006400000F0C5FB484600F0DAFB404600F0D7FB5F
:10065000DAF808000090C0B203300AEB8000694667
:10066000FFF79AFF009B30BBDAB20AEB8202D16837
:1006700001919A1C0133DBB20AEB83030092D3F899
:100680000CB001F00303012B22D0022B15D08346BE
:10069000404600F0B7FB10B1009BCAF8083059463D
:1006A000384600F094FBDAF80830DAF8042003F555
:1006B00080739B1AA6E7D8B2CEE7BDF80630C3F325
:1006C000891303334FEA1B4B02EB93030093DFE7DD
:1006D000BDF80430C3F383134FEA1B4B1344F5E713
:1006E000A40544F0060099E748010020064B07489E
:1006F00010B501221A7000F0E8FD044610B9044854
:1007000000F051FE204610BD480100201C2B0000C7
:10071000842B000030B50A4C71B10A4A0A49121BF9
:10072000D20800239A4201D1002030BD31F8235075
:10073000854202D00133F5E7034654F83300F4E76D
:10074000E42A00000C2B000000000020094B0139B6
:1007500003EBC000032909D8DFE801F00A02040610
:100760000420704700797047407970470020704737
:1007700002207047E42A0000034BD3E90130C31A7A
:1007800058425841704700BF480100202DE9FF4101
:10079000FFF7F2FF0546002840F0E280714CC4F8F4
:1007A0001804BFF34F8FA3680093DBB2033304EB4D
:1007B00083006946FFF7F0FE009B18B1D4F81824B7
:1007C000002A55D0DAB2991C013304EB8202DBB265
:1007D00004EB8303D268DB68029302F00303022B6D
:1007E000019200914FD1BDF806305F48C3F38917DD
:1007F000502F3E4628BF502666F38F1306F108019E
:10080000ADF8063000F079FD0546002800F0938031
:1008100000F0A2FD002301A90822284600F0AFFD48
:100820000099CB43DBB20133C9B20331B6EB830F7E
:100830004FEA830804EB810122D908234246A6EB44
:100840000806284600F09BFDF6B2484908F1080367
:100850003246284600F093FD009B033703EB9707D1
:100860000097D4F81834002B41D1D4F8106451E02B
:1008700062689A4299D8A260284604B0BDE8F08127
:1008800008233246E5E7012B55D1BDF80430364840
:10089000C3F38311062928BF062161F389130231AE
:1008A0008900ADF8043000F028FD0546002842D04C
:1008B00000F052FD0023082201A9284600F05FFD48
:1008C0000026BDF80420C2F38312B300964203F160
:1008D0000803C6D200994A1CC9B20331009204EB46
:1008E00081010422284600F04AFD0136E9E7284646
:1008F00000F036FDFFF740FF80F00100C5B2BBE716
:10090000F3685B7923B1336829461B683046984702
:10091000F3681E68002EF3D1284600F021FD304612
:1009200000F02EFAD4F818340BB9009BA360002015
:1009300000F028FADEE7D4F8104454B90C4B0D4807
:100940000D49C01AC008000440F0020000F05CF835
:10095000D0E7236820469B689847E3681C68ECE76B
:10096000002589E7480100201C2B000054010020CD
:10097000E42A0000042B00006D2B00002DE9F34752
:1009800004460E46924601A9012218469946FFF7F1
:1009900021FE1B4F10B3019D4FF00008AA1CC84553
:1009A00008EB020123D11748002100F0EDF980F394
:1009B0001000000440EA1440E4006B1C04F038040A
:1009C000DBB2EDB244F0010407EB8303033544EAE4
:1009D000881444EA8624D86047F825403B781BB148
:1009E000FFF7D4FE0028FBD102B0BDE8F087C9B202
:1009F00007EB81015AF82830CB6008F10108CEE7F7
:100A0000480100206405002000231A46FFF7B6BF06
:100A100007B50123019201AAFFF7B0FF03B05DF80B
:100A200004FB000030B50F49D1F810240346002024
:100A3000144634B9DC6820714AB9C1F81034226018
:100A400030BDE4682579854206D02468F1E7D26894
:100A5000116821601360F3E701300A28E8D14FF0F4
:100A6000FF30EDE748010020084A38B50123D2F8ED
:100A7000104413701D4604B938BDE3685D712368E6
:100A800020465B689847E3681C68F4E7480100204B
:100A900007B503460846197A052911D05B7A2BB1B0
:100AA000094A0A49019000F007FA019808490190A3
:100AB00000F002FA019803B05DF804EB00F0F1B920
:100AC000002AF8D0F2E700BF902B0000952B000021
:100AD000B52B000030B5C38885B004460D4633B150
:100AE000144A00921449154A284600F0E5F9217A83
:100AF00005291DD0637A4BB1A088FFF727FE104B64
:100B0000104953F82020284600F0D6F9227A0E4BDF
:100B1000A08853F8222003920021FFF7FBFD039ADF
:100B20000A490346284605B0BDE8304000F0C4B984
:100B300005B030BD902B0000A02B0000982B0000CA
:100B40001C2C0000952B0000402C0000B82B00004E
:100B50002DE9F04385B01F460C9D002395F80C90BD
:100B60002B7306460C46904629463846FFF7B2FFDF
:100B7000B8F1060F09D8DFE808F00412181F28336F
:100B800040003146284600F097F9002229463846B1
:100B9000FFF77EFF85F80C9005B0BDE8F083226872
:100BA0003146284600F088F9EFE7D4E900233146C2
:100BB000284600F081F9E8E7A36800933146D4E9BC
:100BC0000023284600F078F9DFE7E3680193A36883
:100BD00000933146D4E90023284600F06DF9D4E7AC
:100BE00023690293E3680193A36800933146D4E933
:100BF0000023284600F060F9C7E76369039323697F
:100C00000293E3680193A36800933146D4E900237B
:100C1000284600F051F9B8E708292DE9F74F80463A
:100C20000E4617461C463CD8002593F80C901D73C1
:100C300019461046FFF74EFFDFF888A0DFF888B0AE
:100C4000AE4231D918F805205946204600F034F953
:100C50000135082DF4D11949194DDFF870A020464F
:100C600000F02AF94FF0000B5E4522D918F80B204E
:100C70007E2A05D81046019201F0D6FE019A00B9ED
:100C80002E225146204600F017F90BF1010BBBF163
:100C9000080FE9D1012221463846FFF7F9FE84F812
:100CA0000C9003B0BDE8F08F5146204600F004F9E7
:100CB000CEE72946204600F0FFF8E6E7CC2B0000FF
:100CC000CA2B0000C82B0000C22B0000CE2B000056
:100CD0001FB50021039001AA44F20100CDE90111E2
:100CE00000F004F805B05DF804FB000010B572B622
:100CF000FFF7BAFEFFF74AFD0028FBD1104B114C5D
:100D00001149E41AE408240444F00100FFF77CFED2
:100D10000E4B1B68DB0700D500BE0D4944F00200F6
:100D2000FFF772FEBFF34F8F0A490B4BCA6802F4FC
:100D3000E0621343CB60BFF34F8F00BFFDE700BFFE
:100D4000E42A0000042B0000542C0000F0ED00E029
:100D5000602C000000ED00E00400FA0572B6024AC3
:100D6000136801331360704700060020034A1368BC
:100D7000013B136003B962B6704700BF0006002054
:100D8000FFF7ECBFFFF7F2BF10B5034653E8000FC3
:100D90000A4643E8002494F0000FF7D110BD10B5C7
:100DA000034653E8002F42EA010043E8000494F0B0
:100DB000000FF6D110BD10B5034653E8000F00EA4E
:100DC000010243E8002494F0000FF6D110BD10B5E5
:100DD000034653E8002F02EB010043E8000494F0BF
:100DE000000FF6D110BD10B5034653E8002FA2EB5B
:100DF000010043E8000494F0000FF6D110BD01217A
:100E0000FFF7CDBF0021FFF7D6BF10B590B1D0E9F5
:100E1000012301689B1ADBB20A60013BDBB2FF2BA6
:100E2000026802D10020107110BD11684C1C1460C2
:100E30000B70F2E70E20F7E738B504460020FFF705
:100E40009FFF226863681168994213D9481E106099
:100E500011F8015CE368218A01FB0535A36811796B
:100E60001B1ADBB2994200D213710020FFF78AFFF0
:100E7000284638BD0025F8E738B5054600200C4661
:100E8000FFF77EFF2A681368591C1160E968641A2D
:100E9000298AB4FBF1F41C70BDE838400020FFF74C
:100EA00071BF826810B504462AB1436901680069C0
:100EB00098470023A36010BD0EB403B5039921B178
:100EC00004AB01AA019300F06FF802B05DF804EBE7
:100ED00003B07047826830B40468551C8560A15423
:100EE000D0E901329A4202D330BCFFF7DABF30BCFE
:100EF000704700002DE9F84F9846DDE90A43154692
:100F000082460F460A464FF00109AA420FD2C14558
:100F100038BFC14613F0010B01D16CB90024012682
:100F2000B8F1010F1BD908F1FF386E43F8E709F15A
:100F30000109B2FBF5F2E8E79B070ED5B8F1000F07
:100F40000CBF30262026A145E9D2013C314650464F
:100F5000FFF7C0FF002CF6D1E0E72026F3E7B7FB50
:100F6000F6F39D42E1D9DFF83C80B7FBF6F350463B
:100F700018F8031006FB1377FFF7ACFF3346AB42BC
:100F8000B6FBF5F6F1D2BBF1000F02D00CB1A145D2
:100F900001D3BDE8F88F20215046013CFFF79AFFAE
:100FA000F4E700BF6D2C00002DE9F74F054617460A
:100FB0008846002900F0428118F8011B49B92B7BB3
:100FC000002B00F03B81284603B0BDE8F04FFFF74F
:100FD00068BF252940F0B780002698F800302D2BF7
:100FE000424608F1010823D0302B24D02B2B25D0EA
:100FF00000242A2B02F1010123D13B681A1D1B6832
:101000003A601C440A4613782E2B26D101324FF049
:10101000000A104610F8011BA1F1300CBCF1090FB9
:101020001DD80A2303FB0A13A3F1300A0246F0E796
:1010300046F00106D1E746F00206CEE746F0040688
:10104000CBE711F8013CA3F130000928DBD80A22D4
:1010500002FB0434303C0A46CBE74FF0000A12F89A
:10106000011B01F0FB0068289046F8D0782909D8C8
:101070006F290CD8632962D022D8252963D058293A
:1010800000F0888098F80030002B95D197E77039F0
:101090000829F7D801A353F821F000BF1712000068
:1010A0008510000085100000A511000085100000CB
:1010B00083110000851000008510000095110000CC
:1010C000642901D06929DDD13A68D2F80090111D58
:1010D00089EAE9723960A2EBE9724FF0010B092A43
:1010E00035DCD34538BFD3462CB1B9F1000F01DB55
:1010F000720700D5013CB30702D5BAF1000F03D047
:10110000F00701D44CBB0024B9F1000F2DDAC9F16E
:1011100000092D212846FFF7DDFE06F00302022A12
:1011200004D1BAF1000F01D11CBB0024CDE9004667
:1011300053460A2249462846FFF7DCFEA2E73B68F1
:101140001A1D19783A602846FFF7C4FE9AE70A2369
:101150000BF1010BB2FBF3F2C1E7A345D4D220217E
:101160002846013CFFF7B6FECCE77107D5D52B2109
:10117000D0E7A345DAD230212846013CFFF7AAFE8A
:10118000D2E73968CDE900460A1D3A6053460A2283
:101190000968D0E739680A1D3A60CDE90046534630
:1011A0001022F5E73B681A1D3A6016F00106D3F8E5
:1011B000009028D1B9F1000F03D0484601F062FC3D
:1011C0000646B44200D904BB09F1FF3919F8011FE2
:1011D00000293FF457AF2846FFF77CFEF6E7284684
:1011E0000136FFF777FE19F806100029F7D1A6425D
:1011F000BFF448AF002C3FF445AF20212846013C06
:10120000FFF768FEF3E70026EDE720212846013CC2
:10121000FFF760FED5E73B681A1D3A60302128468B
:101220001C68FFF757FE78212846FFF753FE00227F
:101230000823CDE90032214610227CE703B0BDE847
:10124000F08F00BF2DE9F84FB0F806A04579D2F82D
:1012500000B09DF828900AFB05F5043D88460BEB8D
:101260000301A94203F1040488BFA5EB030BB4FBFF
:10127000FAF607460AFB1644C2F800B04EB9AAEBCC
:1012800004055D4528BF5D46BBF1000F04D1BDE8F4
:10129000F88F3F68013EF1E7043408EB06003C4458
:1012A0002A46B9F1000F0DD02146ABEB050B01F03A
:1012B000C0FBDA452E443F6855464FF0000428BF76
:1012C0005D46E1E701462046EFE7FFF79EBDF8B532
:1012D00046790146721E0546002393422D6803D3CA
:1012E0000024A64202D8F8BD0133F6E70F6828466D
:1012F000FFF7C2FD01343946F3E72DE9F843068ACA
:10130000CD1C0746FFF798FD043E35440446B5FB67
:10131000F6F5F0B14FF48073EDB28380C680013DE5
:10132000076081464FF00008A84512D23846FFF703
:1013300083FD064648B163790133637108F1010802
:10134000C9F8000007608146EEE72046FFF7BFFFBF
:1013500034462046BDE8F88301210430FFF737BD4D
:1013600010B5012104460430FFF73DFD10F0FF0FDA
:1013700004D12046BDE81040FFF7A9BF10BD1FB53E
:1013800003920022009203AAFFF75CFF05B05DF80C
:1013900004FB1FB503920122009203AAFFF752FF3C
:1013A00005B05DF804FB836800225A60C3E904229B
:1013B0009A60DA601A6070471FB503788DF80030C4
:1013C0008388ADF8043083688DF80630C3688DF8E3
:1013D0000730036902934369054A0393054B684646
:1013E00053F8213052F82110984705B05DF804FBFE
:1013F000040600200C060020024B4FF4807043F0DE
:1014000001031847802C00001F2886BF054A00F002
:101410001F004FF0A042012303FA00F0C2F80805B4
:10142000704700BF000300502DE9F047154690F8C3
:101430000080394A42F82850384A42F828304B7B1D
:1014400006460C46A3B30868DFF8D8904FF0A041D9
:1014500000F5E07340F20C6241F82320636803F565
:10146000E073002741F82320FFF7CEFF6068FFF705
:10147000CBFF236803F5E07340F20D6241F82320AF
:10148000636803F5E0734FF0010A41F82320FFF78A
:10149000B3FF63681F2B8ABF4A464FF0A04203F098
:1014A0001F03D2F8102522FA03F3DB070BD507BB85
:1014B000002D1B4A434608BF2A462146301DBDE881
:1014C000F04700F0C9B923681F2B86BF03F01F0344
:1014D0004A464FF0A0420AFA03F3C2F80C35FFF770
:1014E0008BFF01372068FFF78FFFFFF785FF092F7C
:1014F000CFD163681F2B86BF0A4903F01F034FF04B
:10150000A041012202FA03F3C1F80C35FFF774FF82
:101510006068FFF779FFCBE70C0600200406002087
:10152000B9130000000300501FB503788DF8003098
:101530004368019383688DF80830C368054A0393B4
:10154000054B684653F8213052F82110984705B0F2
:101550005DF804FB140600201C0600201FB503786C
:101560008DF800304368019383688DF80830C368B4
:10157000054A0393054B684653F8213052F8211071
:10158000984705B05DF804FB140600201C060020F7
:10159000F0B5194B90F800C0DFF86CE043F82C2050
:1015A000164B16460A6943F82C204B7F0EF80C3078
:1015B0000C4607460FCC89B06D460FC594E80F0066
:1015C00085E80F001EF80C30CDF810C04BB1002E8E
:1015D0000B4A694608BF3246381D00F075FE09B057
:1015E000F0BD002E074A694608BF324607F10C00DD
:1015F00000F042FCF3E700BF1C06002014060020A8
:10160000291500005D15000024060020014B1B6811
:10161000184700BF2806002038B50B4B98420C46EF
:1016200001D0002038BD0020FFF7AAFB074B1D7931
:1016300015B901221C601A710020FFF7A3FB002DD1
:10164000EFD01120EEE700BF002000402806002068
:10165000034B984201BF034B00221A601A71704776
:1016600000200040280600200023435082B0435849
:101670000193019B02B070470B7B032B2AD8DFE854
:1016800003F022261A028B685A0304D5D0F84C3591
:101690000A699A4207D18B685B031BD4D0F84C359A
:1016A0004A699A4216D000230622C0F80035C0F8D5
:1016B000002518467047D0F84C350A699A42F2D195
:1016C000D0F83C35ECE7D0F84C350A69E9E7D0F8BA
:1016D0003C35FAE701207047F0B55A485A4CD0F82B
:1016E000243187B00546F3B14FF49271FFF7BCFF88
:1016F000D0F80431BBB9A368C0F808330223A36053
:10170000A368C0F80433D0F860311BB1D0F80032C0
:101710009F0503D44B4B01221A625A61012384F8BE
:101720002E3007B0F0BDD5F80431002B52D045481B
:101730004FF48271FFF798FF236A5E060AD494F88B
:101740002E303BB940493F48FFF796FF80F001003B
:1017500084F82E00236A5D0721D43C4E0FCE01ADE4
:101760000FC5336837482B604FF4B071FFF77CFF2B
:1017700034484FF4AE71FFF777FF94F8303013B16F
:1017800094F82E305BB12F4B0022C3F80022A260E8
:101790002F4AC3F808232F4B0822C3F88021294A77
:1017A000D2F8C434C2F8C43498073DD501238DF86B
:1017B000003094F830300BB984F82F30236A5B077F
:1017C00003D594F82E30002BABD0D4E90031684615
:1017D0009847A6E71B484FF4A471FFF745FF237B0A
:1017E00083B91A4F0FCF01AE0FC63B68336094F830
:1017F0003030002BD3D1C5F80032A360144BC5F8AC
:101800000833C8E74FF40073C5F8003240F20223F2
:10181000A36003F1CE73C5F80833A368C5F8043399
:101820000123AB602B627CE7590701D50223BEE799
:10183000DA0701D50323BAE794F82E30002BB6D08F
:101840000423B4E700300040300600203C060020AE
:1018500002029C0100E100E02DE9F84F06793A4DC3
:101860004FF0340A0AFB06FA05EB0A079B4697F885
:101870002D3080460C469146002B60D133490068DC
:10188000FFF7CAFE00285CD12168637B87F83230FD
:101890001F298CBF01F01F030B46B860C7F804B0C6
:1018A00087F82F0087F8300003F5E07288BF284FD3
:1018B00045F80A9098BF4FF0A04740F20C6347F8F4
:1018C000223062681F2A1F468CBF02F01F03134696
:1018D00003F5E0738CBFDFF878C04FF0A04C4CF8F4
:1018E0002370D8F80030C3F80815C3F80C25A26897
:1018F000C3F82425B9F1000F14D0227B43F307313C
:1019000052010029C3F30733D2B213DB114C67181D
:1019100087F800230122490903F01F0302FA03F3A9
:1019200044F82130342303FB0655012385F82D307C
:10193000BDE8F88F084903F00F03CA54F2E7082006
:10194000F6E71120F4E700BF30060020D9160000AA
:101950000003005000E100E014ED00E002680379AC
:101960000621C2F80015044A342101FB0323022298
:1019700083F82D20704700BF300600202DE9F84382
:10198000B14F90F804900468342606FB09760023D2
:1019900086F82E30CB6803F06043B3F1005F0D464C
:1019A000904603D010263046BDE8F883A74BC4F814
:1019B000083396F82F3023B1B368C4F804331126E6
:1019C000F1E712F0140F0CBF0123002386F82F302B
:1019D0008E46BEE80F0006F10C0CACE80F00DEF8F6
:1019E0000030CCF80030C8F3001386F83030C6F869
:1019F00020806B78C4F8883520464FF48271FFF759
:101A000033FE4FF49271FFF72FFE4FF4B071FFF7E2
:101A10002BFE4FF4A471FFF727FE18F0010318BF47
:101A20000123C4F8503518F0020318BF0123C4F88D
:101A300040352B78032B00F2B480DFE803F0839F5E
:101A400068022B6903F06043B3F1005FAAD14FF441
:101A50008073C4F80032EA686B68C4F844254FF418
:101A6000A871C4F84835FFF7FFFD01232362A36086
:101A7000D4F85031002BFBD04FF4A8712046FFF76B
:101A8000F3FDAB682A69C4F84425C4F8483534230B
:101A900003FB09734FF480229A600823002618F094
:101AA000080F04D12A78032A1CBF0122E2503423F4
:101AB00003FB09F3FA18FB58002B75D10125D4F864
:101AC0004821D4F80431002B40F08880003A18BF38
:101AD0000122D4F82431002B00F087804FF492715A
:101AE0002046FFF7C1FDD4F86011D4F8003209B1E7
:101AF000980504D4256265610029E0D00022DB0549
:101B000073D54FF4A4712046FFF7AEFDD7E76B689D
:101B1000EA68C4F84425C4F848352B6903F06042EC
:101B2000B2F1005F7FF43EAFAA68C4F834354FF4D9
:101B30008453C4F83825C4F80032342303FB0973F6
:101B4000022212E06B68EA68C4F8442518F0200FFE
:101B5000C4F848354FF034030BD04FF48072C4F80A
:101B6000002203FB09734FF480229A600123236251
:101B700093E74FF40072C4F80022DFE76B68EA686D
:101B8000C4F83425C4F838354FF48053C4F8003213
:101B9000342303FB097302229A600123236200238A
:101BA0007CE7082307267AE718F0040F1CBF002300
:101BB000936018F0400F06D1342303FB09739A6831
:101BC00042F002029A60342303FB0977BB6843F4B6
:101BD0000073BB60BB68C4F80433E4E64FF4827161
:101BE0002046FFF741FD012273E7002A3FF467AF6B
:101BF0003421D4F8C434C4F8C43401FB0972002081
:101C000082F82F0093B113F0010F14BF4FF4024676
:101C1000032648F2012213F0020F18BF164613F0F4
:101C2000040F48F2022318BF1E46BCE618F0400F0E
:101C30007FF4B9AE09FB01712046FFF71DFD0028B6
:101C400008BF0326AFE600BF3006002002029C0159
:101C500010B586B00024CDE902349DF820308DF80F
:101C60000510A342CDE9042401A914BF2022224675
:101C70008DF80440FFF782FE06B010BD10B586B0A7
:101C8000012402930023CDE903328DF805101A4692
:101C900001A98DF804400593FFF770FE06B010BD52
:101CA0000023435082B043580193019B02B0704718
:101CB0000A4610B54FF48E71FFF7F2FF136A916870
:101CC000C95C136A01331362C0F81C1510BD8B691F
:101CD0000A4610B54FF4847123B9FFF7E1FFD0F83D
:101CE000183510BDFFF7DCFF536AD168D0F818052E
:101CF000C854536A01335362F3E700001FB5012350
:101D00008DF80030044BCDE90110D3E9001268468C
:101D1000904705B05DF804FB6406002030B54C48E0
:101D2000D0F8043313F4007F85B005464DD0D0F8C9
:101D30002431002B49D04FF49271FFF7B1FF4FF4DB
:101D40000173C0F80833434B93F829200AB90122E4
:101D500042603F4902228DF80020D1F88024C1F86A
:101D6000802403929A690292DA6801920022C3E900
:101D700006226846D3E9001290473548D0F81C3156
:101D80005BB134494A690B6A9A420A464AD991F8CA
:101D90002830002B46D1FFF78BFF2D48D0F8443177
:101DA0008BB14FF4A271FFF77BFF2A4B93F82920E8
:101DB0000AB1012202609A692AB10022586AD968E0
:101DC0009A61FFF79BFF05B030BDD5F804335B0780
:101DD000D3D5D5F80831002BCFD01E4C1C48214656
:101DE000FFF775FF636AA2699A422346C5D1E2698B
:101DF000E1684AB12369E3600023606AA261E3619C
:101E00006362FFF77BFFB8E794F829200AB9012243
:101E10006A600F4A4FF40170C2F808030022586A42
:101E20009A61EEE70A484FF48E71FFF739FF536964
:101E3000002BB2D051690291002391688DF80030D7
:101E4000019153616846D2E900139847A5E700BFA6
:101E500000200040640600201F2886BF00F01F00FD
:101E6000044B4FF0A04300F5E070022243F820201D
:101E7000704700BF000300502DE9F843614B05791E
:101E800091462C2202FB0532064692F82A200C4687
:101E90009846002A40F0B1805B490068FFF7BCFB20
:101EA0000746002840F0AB8021684A1C10D01F294B
:101EB00087BF564A01F01F030B464FF0A042012096
:101EC000984003F5E073C2F80805032042F82300A8
:101ED0006068431C0DD01F288BBF00F01F03034612
:101EE0004A4A4FF0A04203F5E0734FF0000C42F86D
:101EF00023C03368A269C3F8242594F814C0627D16
:101F0000BCF1010F4CEA0202C3F86C25C3F81405BA
:101F1000C3F80C152BD1A168481C0DD01F298BBF0D
:101F200001F01F020A4639484FF0A04002F5E07266
:101F30004FF0000C40F822C0E068421C13D01F286C
:101F400087BF324A00F01F0C84464FF0A0424FF08A
:101F5000010E0EFA0CFE0CF5E07CC2F808E54FF01D
:101F6000030E42F82CE0C3F80805C3F810152C2323
:101F70006B4308EB0302C2F80490226948F803207F
:101F8000B9F1000F21D03068247F4FF48E71FFF734
:101F900087FE4FF4A2713068FFF782FE32681C4B57
:101FA000C2F80433110B42F307326301002ADBB29B
:101FB0001EDB1848841884F800330123520901F00D
:101FC0001F0103FA01F140F8221033680422C3F81C
:101FD00000252C2303FB05830022C3E9062283F896
:101FE00029205A61012283F82A203846BDE8F88367
:101FF000094A01F00F015354E7E70827F5E71127D5
:10200000F3E700BF640600201D1D00000003005020
:102010008000020000E100E014ED00E02DE9F04155
:1020200003680479284D0022C3F800252C2202FB06
:10203000045201465268A2B1244AC3F808231A0B7D
:1020400043F30733002B0CDB02F01F005B09012276
:10205000824020331E4840F82320BFF34F8FBFF348
:102060006F8F0B68D3F80C05D3F81485D3F8086587
:10207000D3F810754FF0FF329042C3F81425C3F81F
:102080000C25C3F80825C3F8102501D0FFF7E4FE9E
:10209000B8F1FF3F02D04046FFF7DEFE7A1C02D0C7
:1020A0003846FFF7D9FE731C02D03046FFF7D4FE46
:1020B0000868FFF7CDFA2C2303FB0454002384F8AF
:1020C0002A306360BDE8F0816406002084020200CB
:1020D00000E100E02DE9F047204F90F804904FF028
:1020E0002C0808FB097405466669002E34D162612C
:1020F0000068A16026624FF48E7184F82860FFF7B3
:10210000CFFD2868012383602146FFF7D1FD636876
:10211000A0468BB92868D4F814A0236A9A4511D830
:102120002A68D2F81C31002BFBD00123D3602C236A
:1021300003FB097300225A613046BDE8F08794F82A
:1021400028303BB9D0F81C31002BF8D04146FFF7BE
:10215000AFFDE2E70F26EAE71126EDE7640600206F
:102160000023435082B043580193019B02B0704753
:102170001FB501238DF80030044BCDE90110D3E9E0
:1021800000126846904705B05DF804FB90060020F9
:102190001F2886BF00F01F00044B4FF0A04300F53E
:1021A000E070022243F82020704700BF0003005077
:1021B0007FB5434AD2F82461002E60D010464FF418
:1021C0009271FFF7CDFF02238DF80030D2F88034F2
:1021D000C2F880340393D2F83C350293394BDA6865
:1021E00001920022C3E906226846D3E90012904713
:1021F0003348D0F8443173B14FF4A271FFF7B0FF08
:10220000304B9A693AB10022C3E90622D968D0F866
:102210003C05FFF7ADFF2A48D0F82031ABB14FF4B1
:102220009071FFF79DFF0123C360264B5A6962B18D
:10223000D0F84C150291002299688DF80020019188
:102240005A616846D3E9001290471D48D0F85831CA
:102250009BB14FF4AC71FFF783FF1A4B5A6962B11F
:10226000D0F84C150291002299688DF80020019158
:102270005A616846D3E90012904704B070BDD2F8A5
:102280001031002BB4D04FF488711046FFF768FF6F
:102290000C4BD2F83C0599698842A9D1DC69D96810
:1022A00064B1D2F8005225F02005C2F800521A6934
:1022B0009C61DA60DE61FFF75BFF99E79C61FAE7FA
:1022C00000200040900600202DE9F843674B067976
:1022D0009146242202FB0632044692F820200D4645
:1022E0009846002A40F0BE8061490068FFF794F9E3
:1022F0000746002840F0B8802868421C10D01F28EC
:1023000087BF5C4A00F01F0303464FF0A042012143
:10231000994003F5E073C2F80815032142F8231031
:1023200069684B1C0DD01F298BBF01F01F030B46A2
:10233000504A4FF0A04203F5E0734FF0000C42F812
:1023400023C02368AA69C3F8242595F814C06A7DC0
:10235000BCF1010F4CEA0202C3F86C25C3F80C056E
:10236000C3F814152BD1A968481C0DD01F298BBFA9
:1023700001F01F020A463F484FF0A04002F5E0720C
:102380004FF0000C40F822C0E868421C13D01F2810
:1023900087BF384A00F01F0C84464FF0A0424FF030
:1023A000010E0EFA0CFE0CF5E07CC2F808E54FF0C9
:1023B000030E42F82CE0C3F80805C3F810152423D7
:1023C000734308EB0302C2F804902A6948F803201B
:1023D000B9F1000F30D020682A7F4FF48871FFF7E1
:1023E000BFFE20684FF49071FFF7BAFE20684FF4EB
:1023F0009271FFF7B5FE20684FF4A271FFF7B0FEAF
:102400004FF4AC712068FFF7ABFE23681A49C3F89C
:102410000413190B43F307335201002BD2B21CDB18
:102420001648C51885F8002301225B0901F01F0139
:1024300002FA01F140F8231023680822C3F80025AE
:10244000242303FB06830022C3E906225A610122EA
:1024500083F820203846BDE8F883094B01F00F01CE
:102460005A54E9E70827F5E71127F3E7900600201B
:10247000B1210000000300501003420000E100E021
:1024800014ED00E02DE9F0413D4E05790468242368
:1024900003FB056302465B68ABB13A4BC4F80833F3
:1024A00044F30733002B4FEA14310CDB01F01F001B
:1024B0005B09012181402033334840F82310BFF3EA
:1024C0004F8FBFF36F8FD4F8003223F02003C4F88E
:1024D0000032242303FB05639B6933B14FF4A271DF
:1024E0002046FFF73DFE012363604FF4AC712046A8
:1024F000FFF736FE0123E360242303FB0563D4F8D2
:1025000058110029FBD0996919B1D4F84411002958
:10251000F5D00023C4F800351368D3F80C05D3F8C0
:102520001485D3F80815D3F810754FF0FF32904298
:10253000C3F80C25C3F81425C3F80825C3F81025E3
:1025400001D0FFF725FEB8F1FF3F02D04046FFF76C
:102550001FFE7A1C02D03846FFF71AFE4B1C02D031
:102560000846FFF715FE2046FFF772F8242303FB09
:102570000565002385F820306B60BDE8F08100BF61
:10258000900600201003420000E100E001F06043EB
:10259000B3F1005F2DE9F041064638D11E4B0779B3
:1025A000242505FB073598466C69002C31D16A61FA
:1025B0000068A9604FF49071FFF7D2FD4FF4AC7141
:1025C0003068FFF7CDFD33686A69A968C3F8441520
:1025D000C3F8482501229A606A68AAB9D3F8202175
:1025E000D3F858411AB9002CF8D00F2407E0002C7A
:1025F000FBD10122DA60D3F85821002AFBD0242332
:1026000003FB078700237B612046BDE8F08110248F
:10261000FAE71124F8E700BF90060020F7B5002183
:102620000846FEF763F808B1FEF752FBFDF7A4FF7A
:10263000104C114D114F00F02BF9114BE41AE40826
:10264000240444F0050445F0010500F06DF90DF196
:10265000060101A800F077F9BDF8062039462046AA
:10266000FEF7D6F905264FF47A40A847013EFAD185
:10267000EBE700BF042B0000A02C00009A2C000008
:10268000E42A0000034B1868A0F10803584258419F
:10269000704700BF30010010064B1B68082B06D1A5
:1026A000054B1B68032B02D8044AD05C70470020FE
:1026B000704700BF3001001034010010A62C00004C
:1026C00008B5FFF7DFFF40B14FF080430022C3F8A9
:1026D0000C21C3F81021C3F83825FFF7D3FF0028D9
:1026E00046D04FF080525E4BD2F80414C3F8201548
:1026F000D2F80814C3F82415D2F80C14C3F828151E
:10270000D2F81014C3F82C15D2F81414C3F83015ED
:10271000D2F81814C3F83415D2F81C14C3F84015B5
:10272000D2F82014C3F84415D2F82414C3F848157D
:10273000D2F82814C3F84C15D2F82C14C3F850154D
:10274000D2F83014C3F85415D2F83414C3F8601515
:10275000D2F83814C3F86415D2F83C14C3F86815DD
:10276000D2F84014C3F86C15D2F84424C3F870258D
:10277000FFF792FF10B13B4B3B4A1A60FFF78CFF0B
:1027800018B13A4BFB22C3F81825FFF785FF48B173
:102790003749384B0A681B6822F00F0203F00F0319
:1027A00013430B60FFF778FF18B1334B4FF40072FF
:1027B0001A60FFF767FF48B14FF08043D3F8002459
:1027C000D20744BF6FF00102C3F800242B4AD2F8AD
:1027D000883043F47003C2F88830BFF34F8FBFF3E3
:1027E0006F8F4FF01023D3F80022002A03DBD3F8B9
:1027F0000432002B2FDA224B0122C3F80425D3F830
:102800000024002AFBD04FF010221221C2F800123F
:10281000D3F80024002AFBD04FF010231222C3F873
:102820000422174B1A46D3F800140029FBD00021CC
:10283000C3F80415D2F80034002BFBD0BFF34F8F40
:102840000E49104BCA6802F4E0621343CB60BFF339
:102850004F8F00BFFDE70C4B0C4A1A6008BD00BF4C
:1028600000C000408C5600404881030000F000404A
:10287000E40E0040580200104096024000ED00E0D7
:1028800000E001400400FA051C0000200090D00385
:102890001FB51C211D22CDE900124FF0CD6200238F
:1028A000029206228DF80C200848ADF80D301A4629
:1028B00069468DF80F30FEF7B7FD08B1FEF708FA4C
:1028C0000348FFF74BF805B05DF804FBAC2C0000A3
:1028D000B02C00001FB500238DF80C008DF80D10F2
:1028E000009303AA022357210248FFF7B1F905B06C
:1028F0005DF804FBB02C00007FB50A4E8DF80F0088
:1029000001230C46154600930DF10F025721304666
:10291000FFF79EF92B46224657213046FFF7AEF9C6
:1029200004B070BDB02C000008B50B210620FFF7E5
:10293000D1FF53210720FFF7CDFFBDE808408F21CD
:102940000920FFF7C7BF37B5042205460C4605200E
:102950000DEB0201FFF7D0FF9DF804209DF8053034
:1029600043EA02232B809DF806209DF8073043EAB6
:102970000223238003B030BD7F2805D8034B185CA9
:10298000034B5B5C1840704700207047C82C000068
:10299000482D0000A0F16103192B98BF2038704723
:1029A000A0F14103192B98BF203070477F2805D82C
:1029B000034B185C034B5B5C18407047002070476A
:1029C000C82C0000482D0000A0F16103192B98BF0E
:1029D00020387047A0F14103192B98BF2030704771
:1029E0007F299ABF017001206FF02E0070475AB105
:1029F0000A787F2A0AD800B1026000211960596064
:102A0000501A18BF01207047002070476FF02E0049
:102A10007047000008B5034B5B689B681B689847CC
:102A200008BD00BF2000002008B50921FFF7F2FF14
:102A300008BD844640EA010313F0030F18D1844611
:102A4000202A0BD32DE9F007B1E8F807A0E8F80732
:102A5000A2F12002202AF7D2BDE8F007042A07D30A
:102A600051F8043B40F8043BA2F10402042AF7D2D7
:102A7000002A05D011F8013B00F8013B013AF9D1D9
:102A80006046704700F1010110F0030F11D010F8FB
:102A9000012B002A23D010F0030F0AD010F8012BCD
:102AA000002A1CD010F0030F03D010F8012B002ACD
:102AB00015D02DE970004FF001324FF0803350F8FF
:102AC000044BA4EB020525EA04051D4000D1F6E7FE
:102AD000A0F1040070BC10F8012B002AFBD1A0EB80
:042AE000010070473A
:102AE400862C0000000000008A2C0000000000007A
:102AF4008F2C000000000000942C00000000000057
:082B04007E2B0000000003031A
:102B0C00502B0000000000005C2B00001400002083
:102B1C0078000020400100204801002080000020A7
:042B2C00180000008D
:102B3000FFFFFFFFFFFFFFFFFFFFFFFFFFFFFFFFA5
:102B400000000000000000000000D60106010000A7
:102B5000950400004905000093040000756172743B
:102B60005F6C6F675F6261636B656E640042616397
:102B70006B656E647320666C757368656400617064
:102B800070000000680500207F000000E8050020BC
:102B90001B5B306D002573001B5B313B33316D00D7
:102BA00025734C6F67732064726F707065642028A2
:102BB00025642925730D0A003C25733E2025733AB0
:102BC0002000202530327800202020007C00256362
:102BD000001B5B313B33306D001B5B313B33326D8F
:102BE000001B5B313B33336D001B5B313B33346D7A
:102BF000001B5B313B33356D001B5B313B33366D66
:102C0000001B5B313B33376D007761726E696E6715
:102C100000696E666F00646562756700902B000046
:102C2000D12B0000982B0000D92B0000E12B0000D5
:102C3000E92B0000F12B0000F92B0000012C000013
:102C4000000000005A2C0000092C0000112C00008C
:102C5000162C0000466174616C206572726F720000
:102C600053797374656D2072657365740030313209
:102C70003334353637383941424344454600000045
:102C80000338FDD87047505253005457494D0055F2
:102C90004152540055415254450025640A00000039
:102CA0000338FDD87047010000000000000000005C
:102CB0000030004000000000010000004300000060
:102CC000504F534958000000202020202020202071
:102CD000206828282828202020202020202020208C
:102CE000202020202020202048101010101010102C
:102CF0001010101010101010848484848484848434
:102D00008484101010101010108181818181810144
:102D100001010101010101010101010101010101A3
:102D20000101011010101010108282828282820232
:102D30000202020202020202020202020202020273
:102D400002020210101010200007032004170201D5
:102D50000857104080000000BC2C0000C02D00006F
:102D6000D42E000053756E004D6F6E0054756500D3
:102D700057656400546875004672690053617400B9
:102D8000000000004A616E00466562004D617200FD
:102D9000417072004D6179004A756E004A756C0091
:102DA00041756700536570004F6374004E6F760085
:102DB0004465630000000000414D00504D000000DC
:102DC000F82E0000F42E0000F42E0000F42E000077
:102DD000F42E0000F42E0000F42E0000F42E00006B
:102DE000F42E0000F42E0000FFFFFFFFFFFFFFFFA7
:102DF000FFFFFFFFFFFF0000342E0000642D0000E6
:102E0000702E0000842D0000B82D0000182E000048
:102E1000C82E0000242E0000256D2F25642F257953
:102E20000000000025612025622025652025542012
:102E30002559000053756E646179004D6F6E6461B1
:102E4000790054756573646179005765646E6573C4
:102E500064617900546875727364617900467269BF
:102E600064617900536174757264617900000000D7
:102E70004A616E7561727900466562727561727938
:102E8000004D6172636800417072696C004D617938
:102E9000004A756E65004A756C79004175677573F7
:102EA000740053657074656D626572004F63746F72
:102EB000626572004E6F76656D626572004465638F
:102EC000656D62657200000025483A254D3A25532C
:102ED000000000007929000095290000A1290000C8
:102EE000AD290000C9290000D5290000E129000012
:0A2EF000EF290000000000002E0092
:102EFC000000000000200040000000000020004006
:102F0C000000000000000000FF0000000090D00353
:102F1C00582D0000582D0000582D0000582D000091
:042F2C00582D00001C
:040000030000037581
:00000001FF
